{
  "contractName": "Lottery",
  "abi": [
    {
      "constant": true,
      "inputs": [],
      "name": "revealend",
      "outputs": [
        {
          "name": "",
          "type": "uint256"
        }
      ],
      "payable": false,
      "stateMutability": "view",
      "type": "function"
    },
    {
      "constant": true,
      "inputs": [],
      "name": "buyend",
      "outputs": [
        {
          "name": "",
          "type": "uint256"
        }
      ],
      "payable": false,
      "stateMutability": "view",
      "type": "function"
    },
    {
      "constant": true,
      "inputs": [],
      "name": "winnernumber1",
      "outputs": [
        {
          "name": "",
          "type": "uint256"
        }
      ],
      "payable": false,
      "stateMutability": "view",
      "type": "function"
    },
    {
      "constant": true,
      "inputs": [],
      "name": "firstpurchase",
      "outputs": [
        {
          "name": "",
          "type": "uint256"
        }
      ],
      "payable": false,
      "stateMutability": "view",
      "type": "function"
    },
    {
      "constant": true,
      "inputs": [],
      "name": "winnernumber3",
      "outputs": [
        {
          "name": "",
          "type": "uint256"
        }
      ],
      "payable": false,
      "stateMutability": "view",
      "type": "function"
    },
    {
      "constant": true,
      "inputs": [],
      "name": "start",
      "outputs": [
        {
          "name": "",
          "type": "uint256"
        }
      ],
      "payable": false,
      "stateMutability": "view",
      "type": "function"
    },
    {
      "constant": true,
      "inputs": [],
      "name": "lotteryno",
      "outputs": [
        {
          "name": "",
          "type": "uint256"
        }
      ],
      "payable": false,
      "stateMutability": "view",
      "type": "function"
    },
    {
      "constant": true,
      "inputs": [],
      "name": "winnernumber2",
      "outputs": [
        {
          "name": "",
          "type": "uint256"
        }
      ],
      "payable": false,
      "stateMutability": "view",
      "type": "function"
    },
    {
      "inputs": [],
      "payable": false,
      "stateMutability": "nonpayable",
      "type": "constructor"
    },
    {
      "constant": false,
      "inputs": [
        {
          "name": "tickethash",
          "type": "bytes32"
        }
      ],
      "name": "buyfullticket",
      "outputs": [],
      "payable": true,
      "stateMutability": "payable",
      "type": "function"
    },
    {
      "constant": false,
      "inputs": [
        {
          "name": "tickethash",
          "type": "bytes32"
        }
      ],
      "name": "buyhalfticket",
      "outputs": [],
      "payable": true,
      "stateMutability": "payable",
      "type": "function"
    },
    {
      "constant": false,
      "inputs": [
        {
          "name": "tickethash",
          "type": "bytes32"
        }
      ],
      "name": "buyquarterticket",
      "outputs": [],
      "payable": true,
      "stateMutability": "payable",
      "type": "function"
    },
    {
      "constant": false,
      "inputs": [
        {
          "name": "number1",
          "type": "uint256"
        },
        {
          "name": "number2",
          "type": "uint256"
        },
        {
          "name": "number3",
          "type": "uint256"
        }
      ],
      "name": "revealticket",
      "outputs": [
        {
          "name": "",
          "type": "bool"
        }
      ],
      "payable": false,
      "stateMutability": "nonpayable",
      "type": "function"
    },
    {
      "constant": false,
      "inputs": [],
      "name": "getprice",
      "outputs": [],
      "payable": true,
      "stateMutability": "payable",
      "type": "function"
    },
    {
      "constant": true,
      "inputs": [
        {
          "name": "i",
          "type": "uint256"
        },
        {
          "name": "j",
          "type": "uint256"
        },
        {
          "name": "k",
          "type": "uint256"
        }
      ],
      "name": "gethash",
      "outputs": [
        {
          "name": "retval",
          "type": "bytes32"
        }
      ],
      "payable": false,
      "stateMutability": "view",
      "type": "function"
    },
    {
      "constant": true,
      "inputs": [],
      "name": "getBlockNo",
      "outputs": [
        {
          "name": "",
          "type": "uint256"
        }
      ],
      "payable": false,
      "stateMutability": "view",
      "type": "function"
    },
    {
      "constant": true,
      "inputs": [],
      "name": "getcontractbalance",
      "outputs": [
        {
          "name": "retval",
          "type": "uint256"
        }
      ],
      "payable": false,
      "stateMutability": "view",
      "type": "function"
    }
  ],
  "bytecode": "0x606060405234156200001057600080fd5b60016000819055506000600181905550600c805480600101828162000036919062000070565b91600052602060002090016000809091909150555043600b819055506032600b5401600981905550603260095401600a81905550620000c7565b8154818355818115116200009a578183600052602060002091820191016200009991906200009f565b5b505050565b620000c491905b80821115620000c0576000816000905550600101620000a6565b5090565b90565b61179280620000d76000396000f3006060604052600436106100e6576000357c0100000000000000000000000000000000000000000000000000000000900463ffffffff1680630fcb5984146100eb578063175a5afe146100f5578063355822fd14610111578063474d6e0f1461016257806348fc57f2146101af5780634e5077f2146101d8578063594aea581461020157806371b394a31461022a5780639a55889114610253578063b277fbf91461027c578063be9a655514610298578063cfe03619146102c1578063d10d7eb6146102ea578063d494997414610306578063f28bf1461461032f578063fba0e4bb14610358575b600080fd5b6100f3610381565b005b61010f600480803560001916906020019091905050610461565b005b341561011c57600080fd5b6101446004808035906020019091908035906020019091908035906020019091905050610613565b60405180826000191660001916815260200191505060405180910390f35b341561016d57600080fd5b6101956004808035906020019091908035906020019091908035906020019091905050610687565b604051808215151515815260200191505060405180910390f35b34156101ba57600080fd5b6101c2610bac565b6040518082815260200191505060405180910390f35b34156101e357600080fd5b6101eb610bb2565b6040518082815260200191505060405180910390f35b341561020c57600080fd5b610214610bb8565b6040518082815260200191505060405180910390f35b341561023557600080fd5b61023d610bbe565b6040518082815260200191505060405180910390f35b341561025e57600080fd5b610266610bc4565b6040518082815260200191505060405180910390f35b610296600480803560001916906020019091905050610bca565b005b34156102a357600080fd5b6102ab610d7c565b6040518082815260200191505060405180910390f35b34156102cc57600080fd5b6102d4610d82565b6040518082815260200191505060405180910390f35b610304600480803560001916906020019091905050610d88565b005b341561031157600080fd5b610319610f3a565b6040518082815260200191505060405180910390f35b341561033a57600080fd5b610342610f40565b6040518082815260200191505060405180910390f35b341561036357600080fd5b61036b610f5f565b6040518082815260200191505060405180910390f35b6000600660003373ffffffffffffffffffffffffffffffffffffffff1673ffffffffffffffffffffffffffffffffffffffff168152602001908152602001600020549050600081141515610459573373ffffffffffffffffffffffffffffffffffffffff166108fc829081150290604051600060405180830381858888f19350505050151561040f57600080fd5b6000600660003373ffffffffffffffffffffffffffffffffffffffff1673ffffffffffffffffffffffffffffffffffffffff1681526020019081526020016000208190555061045e565b600080fd5b50565b6104696115fc565b6009544310156105fd5766071afd498d00003414156105f35733816000019073ffffffffffffffffffffffffffffffffffffffff16908173ffffffffffffffffffffffffffffffffffffffff168152505066071afd498d0000816020018181525050818160400190600019169081600019168152505060056000600154815260200190815260200160002060003373ffffffffffffffffffffffffffffffffffffffff1673ffffffffffffffffffffffffffffffffffffffff16815260200190815260200160002080548060010182816105439190611637565b9160005260206000209060030201600083909190915060008201518160000160006101000a81548173ffffffffffffffffffffffffffffffffffffffff021916908373ffffffffffffffffffffffffffffffffffffffff160217905550602082015181600101556040820151816002019060001916905550505066071afd498d0000600c6001548154811015156105d657fe5b9060005260206000209001600082825401925050819055506105f8565b600080fd5b61060f565b610605610f67565b61060e82610461565b5b5050565b600083838333604051808581526020018481526020018381526020018273ffffffffffffffffffffffffffffffffffffffff1673ffffffffffffffffffffffffffffffffffffffff166c01000000000000000000000000028152601401945050505050604051809103902090509392505050565b60008060008060008043945061069c856115d5565b15610b9a57600a54851015610b815788888833604051808581526020018481526020018381526020018273ffffffffffffffffffffffffffffffffffffffff1673ffffffffffffffffffffffffffffffffffffffff166c0100000000000000000000000002815260140194505050505060405180910390209350600560008054600180540301815260200190815260200160002060003373ffffffffffffffffffffffffffffffffffffffff1673ffffffffffffffffffffffffffffffffffffffff168152602001908152602001600020805490509250600083141515610b785760009150600090505b82811015610b60578360001916600560008054600180540301815260200190815260200160002060003373ffffffffffffffffffffffffffffffffffffffff1673ffffffffffffffffffffffffffffffffffffffff168152602001908152602001600020828154811015156107f757fe5b906000526020600020906003020160020154600019161415610b5357600780548060010182816108279190611637565b91600052602060002090600302016000600560008054600180540301815260200190815260200160002060003373ffffffffffffffffffffffffffffffffffffffff1673ffffffffffffffffffffffffffffffffffffffff1681526020019081526020016000208481548110151561089b57fe5b906000526020600020906003020190919091506000820160009054906101000a900473ffffffffffffffffffffffffffffffffffffffff168160000160006101000a81548173ffffffffffffffffffffffffffffffffffffffff021916908373ffffffffffffffffffffffffffffffffffffffff1602179055506001820154816001015560028201548160020190600019169055505050600860008154809291906001019190505550600560008054600180540301815260200190815260200160002060003373ffffffffffffffffffffffffffffffffffffffff1673ffffffffffffffffffffffffffffffffffffffff168152602001908152602001600020600184038154811015156109ab57fe5b9060005260206000209060030201600560008054600180540301815260200190815260200160002060003373ffffffffffffffffffffffffffffffffffffffff1673ffffffffffffffffffffffffffffffffffffffff16815260200190815260200160002082815481101515610a1d57fe5b90600052602060002090600302016000820160009054906101000a900473ffffffffffffffffffffffffffffffffffffffff168160000160006101000a81548173ffffffffffffffffffffffffffffffffffffffff021916908373ffffffffffffffffffffffffffffffffffffffff1602179055506001820154816001015560028201548160020190600019169055905050600560008054600180540301815260200190815260200160002060003373ffffffffffffffffffffffffffffffffffffffff1673ffffffffffffffffffffffffffffffffffffffff168152602001908152602001600020805480919060019003610b199190611669565b5060019150866004600082825418925050819055508760036000828254189250508190555088600260008282541892505081905550610b60565b8080600101915050610786565b8115610b6f5760019550610ba0565b60009550610ba0565b60009550610ba0565b610b89610f67565b610b94898989610687565b50610b9f565b600080fd5b5b50505050509392505050565b600a5481565b60095481565b60025481565b60005481565b60045481565b610bd26115fc565b600954431015610d6657660e35fa931a0000341415610d5c5733816000019073ffffffffffffffffffffffffffffffffffffffff16908173ffffffffffffffffffffffffffffffffffffffff1681525050660e35fa931a0000816020018181525050818160400190600019169081600019168152505060056000600154815260200190815260200160002060003373ffffffffffffffffffffffffffffffffffffffff1673ffffffffffffffffffffffffffffffffffffffff1681526020019081526020016000208054806001018281610cac9190611637565b9160005260206000209060030201600083909190915060008201518160000160006101000a81548173ffffffffffffffffffffffffffffffffffffffff021916908373ffffffffffffffffffffffffffffffffffffffff1602179055506020820151816001015560408201518160020190600019169055505050660e35fa931a0000600c600154815481101515610d3f57fe5b906000526020600020900160008282540192505081905550610d61565b600080fd5b610d78565b610d6e610f67565b610d7782610bca565b5b5050565b600b5481565b60015481565b610d906115fc565b600954431015610f2457661c6bf526340000341415610f1a5733816000019073ffffffffffffffffffffffffffffffffffffffff16908173ffffffffffffffffffffffffffffffffffffffff1681525050661c6bf526340000816020018181525050818160400190600019169081600019168152505060056000600154815260200190815260200160002060003373ffffffffffffffffffffffffffffffffffffffff1673ffffffffffffffffffffffffffffffffffffffff1681526020019081526020016000208054806001018281610e6a9190611637565b9160005260206000209060030201600083909190915060008201518160000160006101000a81548173ffffffffffffffffffffffffffffffffffffffff021916908373ffffffffffffffffffffffffffffffffffffffff1602179055506020820151816001015560408201518160020190600019169055505050661c6bf526340000600c600154815481101515610efd57fe5b906000526020600020900160008282540192505081905550610f1f565b600080fd5b610f36565b610f2c610f67565b610f3582610d88565b5b5050565b60035481565b60003073ffffffffffffffffffffffffffffffffffffffff1631905090565b600043905090565b60008060008060006032600960008282540192505081905550600c8054806001018281610f94919061169b565b916000526020600020900160008090919091505550439450610fb5856115e7565b156115a957600854600254811515610fc957fe5b06600281905550600854600354811515610fdf57fe5b06600381905550600854600454811515610ff557fe5b0660048190555060035460025414156110225760085460016003540181151561101a57fe5b066003819055505b60045460025414156110485760085460026004540181151561104057fe5b066004819055505b600454600354141561106e5760085460016004540181151561106657fe5b066004819055505b600093506000925060009150661c6bf526340000600760025481548110151561109357fe5b90600052602060002090600302016001015414156110e1576002600c6000546001805403018154811015156110c457fe5b9060005260206000209001548115156110d957fe5b04935061117b565b660e35fa931a000060076002548154811015156110fa57fe5b9060005260206000209060030201600101541415611148576004600c60005460018054030181548110151561112b57fe5b90600052602060002090015481151561114057fe5b04935061117a565b6008600c60005460018054030181548110151561116157fe5b90600052602060002090015481151561117657fe5b0493505b5b661c6bf526340000600760035481548110151561119457fe5b90600052602060002090600302016001015414156111e2576004600c6000546001805403018154811015156111c557fe5b9060005260206000209001548115156111da57fe5b04925061127c565b660e35fa931a000060076003548154811015156111fb57fe5b9060005260206000209060030201600101541415611249576008600c60005460018054030181548110151561122c57fe5b90600052602060002090015481151561124157fe5b04925061127b565b6010600c60005460018054030181548110151561126257fe5b90600052602060002090015481151561127757fe5b0492505b5b661c6bf526340000600760045481548110151561129557fe5b90600052602060002090600302016001015414156112e3576008600c6000546001805403018154811015156112c657fe5b9060005260206000209001548115156112db57fe5b04915061137d565b660e35fa931a000060076004548154811015156112fc57fe5b906000526020600020906003020160010154141561134a576010600c60005460018054030181548110151561132d57fe5b90600052602060002090015481151561134257fe5b04915061137c565b6020600c60005460018054030181548110151561136357fe5b90600052602060002090015481151561137857fe5b0491505b5b8360066000600760025481548110151561139357fe5b906000526020600020906003020160000160009054906101000a900473ffffffffffffffffffffffffffffffffffffffff1673ffffffffffffffffffffffffffffffffffffffff1673ffffffffffffffffffffffffffffffffffffffff168152602001908152602001600020600082825401925050819055508260066000600760035481548110151561142257fe5b906000526020600020906003020160000160009054906101000a900473ffffffffffffffffffffffffffffffffffffffff1673ffffffffffffffffffffffffffffffffffffffff1673ffffffffffffffffffffffffffffffffffffffff16815260200190815260200160002060008282540192505081905550816006600060076004548154811015156114b157fe5b906000526020600020906003020160000160009054906101000a900473ffffffffffffffffffffffffffffffffffffffff1673ffffffffffffffffffffffffffffffffffffffff1673ffffffffffffffffffffffffffffffffffffffff16815260200190815260200160002060008282540192505081905550838383600c60005460018054030181548110151561154457fe5b906000526020600020900154030303905080600c6000546001540181548110151561156b57fe5b9060005260206000209001600082825401925050819055506007600061159191906116c7565b6008600090556032600a600082825401925050819055505b600160005414156115bc57600080819055505b6001600081548092919060010191905055505050505050565b60006032600b54018210159050919050565b60006032600202600b54018210159050919050565b606060405190810160405280600073ffffffffffffffffffffffffffffffffffffffff16815260200160008152602001600080191681525090565b8154818355818115116116645760030281600302836000526020600020918201910161166391906116eb565b5b505050565b8154818355818115116116965760030281600302836000526020600020918201910161169591906116eb565b5b505050565b8154818355818115116116c2578183600052602060002091820191016116c19190611741565b5b505050565b50805460008255600302906000526020600020908101906116e891906116eb565b50565b61173e91905b8082111561173a57600080820160006101000a81549073ffffffffffffffffffffffffffffffffffffffff021916905560018201600090556002820160009055506003016116f1565b5090565b90565b61176391905b8082111561175f576000816000905550600101611747565b5090565b905600a165627a7a72305820de6706fef4b7aee73ee13d25cf872661df00c3ab3d7d9ee86cc7533c39e813c10029",
  "source": "pragma\tsolidity\t^0.4.19;\t\n\ncontract\tLottery\t{\t\n    \n    struct Ticket{\n        address owner;\n        uint256 value;\n        bytes32 hashVal;\n    }\n\n    // constant ticket prices\n    uint\tconstant\tfullpay = 8 finney;\n    uint\tconstant\thalfpay = 4 finney;\n    uint\tconstant\tquarterpay = 2 finney;\n\n    // constant block period\n    uint\tconstant\tblockperiod = 50;\n    \n    // flag to check if it is first purchase stage (1 if it is, else 0)\n    uint public firstpurchase;\n    \n    // current lottery number\n    uint public lotteryno;\n    \n    \n    // winner numbers that are updated by xoring the numbers given by the buyer at reveal stage\n\tuint public winnernumber1;\n\tuint public winnernumber2;\n\tuint public winnernumber3;\n\t\n    \n    // lottery mapping that map lotteryno to another mapping that maps ticket hash given at purchase stage to ticket value\n    mapping ( uint => mapping(address => Ticket[]) ) boughttickets;\n\n    // holds winners' addresses\n    mapping (address => uint) winners;    \n    \n    // revealed ticket list\n    Ticket[] revealedtickets;\n\t\n\t// total number of revealed tickets for the lottery to be revealed next\n\tuint totalrevealed;\n\t\n\t// purchase end, reveal end time block numbers of lottery\n\tuint    public  buyend;\n\tuint\tpublic\trevealend;\n\t\n\t// start time block number of the contract\n\tuint    public  start;\n\t\n\t// current balances of lotteries\n\tuint[]  lotterybalance;\n\t\t\n\t//\tconstructor\t\t\n\tfunction Lottery() public\t{\n\t    firstpurchase = 1;\n\t    lotteryno = 0;\n\t    lotterybalance.push(0);\n\t    \n\t    start = block.number;\n\t\tbuyend =\tstart +  blockperiod;\n\t\trevealend = buyend + blockperiod;\n\t}\n\t\n\t//buy full ticket\n\tfunction buyfullticket(bytes32 tickethash) public payable {\n\t    if(block.number < buyend){\n\t         if(msg.value == fullpay){\n\t             Ticket memory t;\n\t             t.owner = msg.sender;\n\t             t.value = 8 finney;\n\t             t.hashVal = tickethash;\n\t             boughttickets[lotteryno][msg.sender].push(t);\n\t             lotterybalance[lotteryno] += 8 finney;\n\t         }else{\n\t             revert();\n\t         }\n\t    }else{\n\t        // update lottery and try buying ticket in the next lottery\n\t        updatelottery();\n\t        buyfullticket(tickethash);\n\t    }\n\t}\n\t\n\t//buy half ticket\n\tfunction buyhalfticket(bytes32 tickethash) public payable {\n\t    if(block.number < buyend){\n\t         if(msg.value == halfpay){\n\t             Ticket memory t;\n\t             t.owner = msg.sender;\n\t             t.value = 4 finney;\n\t             t.hashVal = tickethash;\n\t             boughttickets[lotteryno][msg.sender].push(t);\n\t             lotterybalance[lotteryno] += 4 finney;\n\t         }else{\n\t             revert();\n\t         }\n\t    }else{\n\t        // update lottery and try buying ticket in the next lottery\n\t        updatelottery();\n\t        buyhalfticket(tickethash);\n\t    }\n\t}\n\t\n\t//buy quarter ticket\n\tfunction buyquarterticket(bytes32 tickethash) public payable {\n\t    if(block.number < buyend){\n\t         if(msg.value == quarterpay){\n\t             Ticket memory t;\n\t             t.owner = msg.sender;\n\t             t.value = 2 finney;\n\t             t.hashVal = tickethash;\n\t             boughttickets[lotteryno][msg.sender].push(t);\n\t             lotterybalance[lotteryno] += 2 finney;\n\t         }else{\n\t             revert();\n\t         }\n\t    }else{\n\t        // update lottery and try buying ticket in the next lottery\n\t        updatelottery();\n\t        buyquarterticket(tickethash);\n\t    }\n\t}\n\n\n\n   //reveal ticket\n   function revealticket(uint number1, uint number2, uint number3) public returns(bool) {\n        uint blockNo = block.number;\n        if( firstPurchaseEnded(blockNo) ){\n            if(blockNo < revealend){\n\n                 bytes32 hash = keccak256(number1,number2,number3,msg.sender);\n\t             uint totalticketsnotyetrevealed = boughttickets[lotteryno-1+firstpurchase][msg.sender].length;\n\t             if(totalticketsnotyetrevealed != 0){\n\t                \n\t                bool found = false;\n\t                for(uint i=0;i<totalticketsnotyetrevealed;i++){\n\t                    if(boughttickets[lotteryno-1+firstpurchase][msg.sender][i].hashVal == hash){\n\t                       revealedtickets.push(boughttickets[lotteryno-1+firstpurchase][msg.sender][i]);\n\t                       totalrevealed++;      \n\t                       // to prevent double reveal of the same ticket\n\t                       boughttickets[lotteryno-1+firstpurchase][msg.sender][i] = boughttickets[lotteryno-1+firstpurchase][msg.sender][totalticketsnotyetrevealed-1];\n\t                       boughttickets[lotteryno-1+firstpurchase][msg.sender].length--;\n\t                    \n\t                       found = true;\n\t                       winnernumber3 ^= number3;\n                           winnernumber2 ^= number2;\n\t                       winnernumber1 ^= number1;\n\t                       break;\n\t                    }\n\t                }\n\t             \n\t                // if found is true, then user revealed a ticket(return true), else he did not have any purchased ticket to reveal(return false)\n\t                if(found){\n\t                    return true;\n\t                }else{\n\t                    return false;\n\t                }\n\t                \n\t                \n\t            }else{\n\t                // user has no purchased ticket\n\t                return false;\n\t            }\n\n            }else{\n                // previous lottery reveal stage has ended, so update lottery and maybe user wanted to reveal a ticket of the current lottery\n\t            updatelottery();\n\t            revealticket(number1,number2,number3);   \n            }\n            \n        }else{\n            // it is first lottery purchase time and reveal stage has not started yet, so revert\n\t        revert();\n        }\n       \n\t            \n   }\n   \n  \n  // get price if sender has balance greater than zero\n  function getprice() public payable {\n     uint amount = winners[msg.sender];\n     if(amount != 0){\n         if\t(!msg.sender.send(amount))\t{\t\n\t\t\t \trevert();\n\t\t }else{\n\t\t     winners[msg.sender] = 0;\n\t\t }\n     }else{\n         revert();\n     }\n\t  \n  }\n  \n\n  // updates lottery times after finding winners of the lottery\n  function updatelottery() private {\n\n     //always update purchaseend time, but update revealend time only if the first lottery has already ended\n     buyend += blockperiod;\n\n     // push next lottery balance\n     lotterybalance.push(0);\n\n     uint blockNo = block.number;\n     if(firstLotteryEnded(blockNo)){\n\n        winnernumber1 = winnernumber1 % totalrevealed;\n        winnernumber2 = winnernumber2 % totalrevealed;\n        winnernumber3 = winnernumber3 % totalrevealed;\n\n        //make sure that winner indexes are different\n        if(winnernumber1 == winnernumber2){\n           winnernumber2 = (winnernumber2 + 1) % totalrevealed;\n        }\n        if(winnernumber1 == winnernumber3){\n           winnernumber3 =  (winnernumber3 + 2) % totalrevealed;\n        }\n        if(winnernumber2 == winnernumber3){\n           winnernumber3 = (winnernumber3 + 1) % totalrevealed;\n        }\n\n        uint prize1 = 0;\n        uint prize2 = 0;\n        uint prize3 = 0;\n\n        if(revealedtickets[winnernumber1].value == 8 finney){\n            prize1 = lotterybalance[lotteryno-1+firstpurchase]/2;\n        }else if(revealedtickets[winnernumber1].value == 4 finney){\n            prize1 = lotterybalance[lotteryno-1+firstpurchase]/4;\n        }else{\n            prize1 = lotterybalance[lotteryno-1+firstpurchase]/8;\n        }\n\n        if(revealedtickets[winnernumber2].value == 8 finney){\n            prize2 = lotterybalance[lotteryno-1+firstpurchase]/4;\n        }else if(revealedtickets[winnernumber2].value == 4 finney){\n            prize2 = lotterybalance[lotteryno-1+firstpurchase]/8;\n        }else{\n            prize2 = lotterybalance[lotteryno-1+firstpurchase]/16;\n        }\n\n        if(revealedtickets[winnernumber3].value == 8 finney){\n            prize3 = lotterybalance[lotteryno-1+firstpurchase]/8;\n        }else if(revealedtickets[winnernumber3].value == 4 finney){\n            prize3 = lotterybalance[lotteryno-1+firstpurchase]/16;\n        }else{\n            prize3 = lotterybalance[lotteryno-1+firstpurchase]/32;\n        }\n\n\n        // give the price first winner if there are many winners with the same number\n        winners[revealedtickets[winnernumber1].owner] += prize1;\n        winners[revealedtickets[winnernumber2].owner] += prize2;\n        winners[revealedtickets[winnernumber3].owner] += prize3;\n\n        // update balance of the next lottery\n        uint leftovermoney = lotterybalance[lotteryno-1+firstpurchase] - prize3 - prize2 - prize1;\n        lotterybalance[lotteryno+firstpurchase] += leftovermoney;\n\n        // delete revealed tickets to go next lottery reveal safe\n        delete revealedtickets;\n        delete totalrevealed;\n\n        revealend += blockperiod;\n\n\n     }\n\n\n     // set firstpurchase 0 after first purchase ends\n     if(firstpurchase == 1){\n        firstpurchase = 0;\n      }\n\n\n     // update lottery number\n     lotteryno++;\n\n  }\n   \n  // returns true if first purchase stage has already ended; otherwise, returns false\n  function firstPurchaseEnded(uint blockNo) private view returns(bool){\n      return blockNo >= start + blockperiod;\n  }\n   \n  // returns true if first lottery has already ended; otherwise, returns false\n  function firstLotteryEnded(uint blockNo) private view returns(bool){\n      return blockNo >= start + 2*blockperiod;\n  }\n   \n   \n  /*below methods are helpers when debug*/\n  function gethash(uint i,uint j,uint k) public view returns(bytes32 retval){\n      return keccak256(i,j,k,msg.sender);\n  }\n   \n  function getBlockNo() public view returns(uint){\n      return block.number;\n  }\n   \n  function getcontractbalance() constant public returns(uint retval) {\n      return address(this).balance;\n  }\n   \n\n}\t\n",
  "sourcePath": "/home/aykut/Desktop/DecentralizedLottery/contracts/Lottery.sol",
  "compiler": {
    "name": "solc",
    "version": "0.4.21+commit.dfe3193c.Emscripten.clang"
  },
  "schemaVersion": "2.0.0",
  "updatedAt": "2018-04-17T14:00:50.552Z"
}