{
  "contractName": "Lottery",
  "abi": [
    {
      "constant": true,
      "inputs": [],
      "name": "revealend",
      "outputs": [
        {
          "name": "",
          "type": "uint256"
        }
      ],
      "payable": false,
      "stateMutability": "view",
      "type": "function"
    },
    {
      "constant": true,
      "inputs": [],
      "name": "buyend",
      "outputs": [
        {
          "name": "",
          "type": "uint256"
        }
      ],
      "payable": false,
      "stateMutability": "view",
      "type": "function"
    },
    {
      "constant": true,
      "inputs": [],
      "name": "winnernumber1",
      "outputs": [
        {
          "name": "",
          "type": "uint256"
        }
      ],
      "payable": false,
      "stateMutability": "view",
      "type": "function"
    },
    {
      "constant": true,
      "inputs": [],
      "name": "winnernumber3",
      "outputs": [
        {
          "name": "",
          "type": "uint256"
        }
      ],
      "payable": false,
      "stateMutability": "view",
      "type": "function"
    },
    {
      "constant": true,
      "inputs": [],
      "name": "start",
      "outputs": [
        {
          "name": "",
          "type": "uint256"
        }
      ],
      "payable": false,
      "stateMutability": "view",
      "type": "function"
    },
    {
      "constant": true,
      "inputs": [],
      "name": "lotteryno",
      "outputs": [
        {
          "name": "",
          "type": "uint256"
        }
      ],
      "payable": false,
      "stateMutability": "view",
      "type": "function"
    },
    {
      "constant": true,
      "inputs": [],
      "name": "winnernumber2",
      "outputs": [
        {
          "name": "",
          "type": "uint256"
        }
      ],
      "payable": false,
      "stateMutability": "view",
      "type": "function"
    },
    {
      "inputs": [],
      "payable": false,
      "stateMutability": "nonpayable",
      "type": "constructor"
    },
    {
      "payable": false,
      "stateMutability": "nonpayable",
      "type": "fallback"
    },
    {
      "constant": false,
      "inputs": [
        {
          "name": "tickethash",
          "type": "bytes32"
        }
      ],
      "name": "buyfullticket",
      "outputs": [],
      "payable": true,
      "stateMutability": "payable",
      "type": "function"
    },
    {
      "constant": false,
      "inputs": [
        {
          "name": "tickethash",
          "type": "bytes32"
        }
      ],
      "name": "buyhalfticket",
      "outputs": [],
      "payable": true,
      "stateMutability": "payable",
      "type": "function"
    },
    {
      "constant": false,
      "inputs": [
        {
          "name": "tickethash",
          "type": "bytes32"
        }
      ],
      "name": "buyquarterticket",
      "outputs": [],
      "payable": true,
      "stateMutability": "payable",
      "type": "function"
    },
    {
      "constant": false,
      "inputs": [
        {
          "name": "number1",
          "type": "uint256"
        },
        {
          "name": "number2",
          "type": "uint256"
        },
        {
          "name": "number3",
          "type": "uint256"
        }
      ],
      "name": "revealticket",
      "outputs": [
        {
          "name": "",
          "type": "bool"
        }
      ],
      "payable": false,
      "stateMutability": "nonpayable",
      "type": "function"
    },
    {
      "constant": false,
      "inputs": [],
      "name": "getprice",
      "outputs": [],
      "payable": true,
      "stateMutability": "payable",
      "type": "function"
    },
    {
      "constant": true,
      "inputs": [
        {
          "name": "i",
          "type": "uint256"
        },
        {
          "name": "j",
          "type": "uint256"
        },
        {
          "name": "k",
          "type": "uint256"
        }
      ],
      "name": "gethash",
      "outputs": [
        {
          "name": "retval",
          "type": "bytes32"
        }
      ],
      "payable": false,
      "stateMutability": "view",
      "type": "function"
    },
    {
      "constant": true,
      "inputs": [],
      "name": "getBlockNo",
      "outputs": [
        {
          "name": "",
          "type": "uint256"
        }
      ],
      "payable": false,
      "stateMutability": "view",
      "type": "function"
    },
    {
      "constant": true,
      "inputs": [],
      "name": "getcontractbalance",
      "outputs": [
        {
          "name": "retval",
          "type": "uint256"
        }
      ],
      "payable": false,
      "stateMutability": "view",
      "type": "function"
    }
  ],
  "bytecode": "0x606060405234156200001057600080fd5b60008081905550600b80548060010182816200002d919062000067565b91600052602060002090016000809091909150555043600881905550603260085401600981905550603260095401600a81905550620000be565b815481835581811511620000915781836000526020600020918201910162000090919062000096565b5b505050565b620000bb91905b80821115620000b75760008160009055506001016200009d565b5090565b90565b6117ee80620000ce6000396000f3006060604052600436106100db576000357c0100000000000000000000000000000000000000000000000000000000900463ffffffff1680630fcb5984146100eb578063175a5afe146100f5578063355822fd14610111578063474d6e0f1461016257806348fc57f2146101af5780634e5077f2146101d8578063594aea58146102015780639a5588911461022a578063b277fbf914610253578063be9a65551461026f578063cfe0361914610298578063d10d7eb6146102c1578063d4949974146102dd578063f28bf14614610306578063fba0e4bb1461032f575b34156100e657600080fd5b600080fd5b6100f3610358565b005b61010f600480803560001916906020019091905050610438565b005b341561011c57600080fd5b610144600480803590602001909190803590602001909190803590602001909190505061064e565b60405180826000191660001916815260200191505060405180910390f35b341561016d57600080fd5b61019560048080359060200190919080359060200190919080359060200190919050506106c2565b604051808215151515815260200191505060405180910390f35b34156101ba57600080fd5b6101c2610bd8565b6040518082815260200191505060405180910390f35b34156101e357600080fd5b6101eb610bde565b6040518082815260200191505060405180910390f35b341561020c57600080fd5b610214610be4565b6040518082815260200191505060405180910390f35b341561023557600080fd5b61023d610bea565b6040518082815260200191505060405180910390f35b61026d600480803560001916906020019091905050610bf0565b005b341561027a57600080fd5b610282610ddd565b6040518082815260200191505060405180910390f35b34156102a357600080fd5b6102ab610de3565b6040518082815260200191505060405180910390f35b6102db600480803560001916906020019091905050610de9565b005b34156102e857600080fd5b6102f0610fff565b6040518082815260200191505060405180910390f35b341561031157600080fd5b610319611005565b6040518082815260200191505060405180910390f35b341561033a57600080fd5b610342611024565b6040518082815260200191505060405180910390f35b6000600560003373ffffffffffffffffffffffffffffffffffffffff1673ffffffffffffffffffffffffffffffffffffffff168152602001908152602001600020549050600081141515610430573373ffffffffffffffffffffffffffffffffffffffff166108fc829081150290604051600060405180830381858888f1935050505015156103e657600080fd5b6000600560003373ffffffffffffffffffffffffffffffffffffffff1673ffffffffffffffffffffffffffffffffffffffff16815260200190815260200160002081905550610435565b600080fd5b50565b610440611658565b6009544310156105d35766071afd498d00003414156105c95733816000019073ffffffffffffffffffffffffffffffffffffffff16908173ffffffffffffffffffffffffffffffffffffffff168152505066071afd498d00008160200181815250508181604001906000191690816000191681525050600460008054815260200190815260200160002060003373ffffffffffffffffffffffffffffffffffffffff1673ffffffffffffffffffffffffffffffffffffffff16815260200190815260200160002080548060010182816105199190611693565b9160005260206000209060030201600083909190915060008201518160000160006101000a81548173ffffffffffffffffffffffffffffffffffffffff021916908373ffffffffffffffffffffffffffffffffffffffff160217905550602082015181600101556040820151816002019060001916905550505066071afd498d0000600b6000548154811015156105ac57fe5b9060005260206000209001600082825401925050819055506105ce565b600080fd5b61064a565b600080541415156105eb576105e661102c565b610640565b6009546008819055506032600960008282540192505081905550600b805480600101828161061991906116c5565b91600052602060002090016000809091909150555060008081548092919060010191905055505b61064982610438565b5b5050565b600083838333604051808581526020018481526020018381526020018273ffffffffffffffffffffffffffffffffffffffff1673ffffffffffffffffffffffffffffffffffffffff166c01000000000000000000000000028152601401945050505050604051809103902090509392505050565b600080600080600080600054141580156106dd5750600a5443105b15610bac5787878733604051808581526020018481526020018381526020018273ffffffffffffffffffffffffffffffffffffffff1673ffffffffffffffffffffffffffffffffffffffff166c010000000000000000000000000281526014019450505050506040518091039020935060046000600160005403815260200190815260200160002060003373ffffffffffffffffffffffffffffffffffffffff1673ffffffffffffffffffffffffffffffffffffffff168152602001908152602001600020805490509250600083141515610ba35760009150600090505b82811015610b8b57836000191660046000600160005403815260200190815260200160002060003373ffffffffffffffffffffffffffffffffffffffff1673ffffffffffffffffffffffffffffffffffffffff1681526020019081526020016000208281548110151561082a57fe5b906000526020600020906003020160020154600019161415610b7e576006805480600101828161085a9190611693565b9160005260206000209060030201600060046000600160005403815260200190815260200160002060003373ffffffffffffffffffffffffffffffffffffffff1673ffffffffffffffffffffffffffffffffffffffff168152602001908152602001600020848154811015156108cc57fe5b906000526020600020906003020190919091506000820160009054906101000a900473ffffffffffffffffffffffffffffffffffffffff168160000160006101000a81548173ffffffffffffffffffffffffffffffffffffffff021916908373ffffffffffffffffffffffffffffffffffffffff160217905550600182015481600101556002820154816002019060001916905550505060076000815480929190600101919050555060046000600160005403815260200190815260200160002060003373ffffffffffffffffffffffffffffffffffffffff1673ffffffffffffffffffffffffffffffffffffffff168152602001908152602001600020600184038154811015156109da57fe5b906000526020600020906003020160046000600160005403815260200190815260200160002060003373ffffffffffffffffffffffffffffffffffffffff1673ffffffffffffffffffffffffffffffffffffffff16815260200190815260200160002082815481101515610a4a57fe5b90600052602060002090600302016000820160009054906101000a900473ffffffffffffffffffffffffffffffffffffffff168160000160006101000a81548173ffffffffffffffffffffffffffffffffffffffff021916908373ffffffffffffffffffffffffffffffffffffffff160217905550600182015481600101556002820154816002019060001916905590505060046000600160005403815260200190815260200160002060003373ffffffffffffffffffffffffffffffffffffffff1673ffffffffffffffffffffffffffffffffffffffff168152602001908152602001600020805480919060019003610b4491906116f1565b5060019150856003600082825418925050819055508660026000828254189250508190555087600160008282541892505081905550610b8b565b80806001019150506107bb565b8115610b9a5760019450610bcd565b60009450610bcd565b60009450610bcd565b60008054141515610bc857610bbf61102c565b60009450610bcd565b600080fd5b505050509392505050565b600a5481565b60095481565b60015481565b60035481565b610bf8611658565b600954431015610d8b57660e35fa931a0000341415610d815733816000019073ffffffffffffffffffffffffffffffffffffffff16908173ffffffffffffffffffffffffffffffffffffffff1681525050660e35fa931a00008160200181815250508181604001906000191690816000191681525050600460008054815260200190815260200160002060003373ffffffffffffffffffffffffffffffffffffffff1673ffffffffffffffffffffffffffffffffffffffff1681526020019081526020016000208054806001018281610cd19190611693565b9160005260206000209060030201600083909190915060008201518160000160006101000a81548173ffffffffffffffffffffffffffffffffffffffff021916908373ffffffffffffffffffffffffffffffffffffffff1602179055506020820151816001015560408201518160020190600019169055505050660e35fa931a0000600b600054815481101515610d6457fe5b906000526020600020900160008282540192505081905550610d86565b600080fd5b610dd9565b60008054141515610da357610d9e61102c565b610dcf565b600954600881905550603260096000828254019250508190555060008081548092919060010191905055505b610dd882610bf0565b5b5050565b60085481565b60005481565b610df1611658565b600954431015610f8457661c6bf526340000341415610f7a5733816000019073ffffffffffffffffffffffffffffffffffffffff16908173ffffffffffffffffffffffffffffffffffffffff1681525050661c6bf5263400008160200181815250508181604001906000191690816000191681525050600460008054815260200190815260200160002060003373ffffffffffffffffffffffffffffffffffffffff1673ffffffffffffffffffffffffffffffffffffffff1681526020019081526020016000208054806001018281610eca9190611693565b9160005260206000209060030201600083909190915060008201518160000160006101000a81548173ffffffffffffffffffffffffffffffffffffffff021916908373ffffffffffffffffffffffffffffffffffffffff1602179055506020820151816001015560408201518160020190600019169055505050661c6bf526340000600b600054815481101515610f5d57fe5b906000526020600020900160008282540192505081905550610f7f565b600080fd5b610ffb565b60008054141515610f9c57610f9761102c565b610ff1565b6009546008819055506032600960008282540192505081905550600b8054806001018281610fca91906116c5565b91600052602060002090016000809091909150555060008081548092919060010191905055505b610ffa82610de9565b5b5050565b60025481565b60003073ffffffffffffffffffffffffffffffffffffffff1631905090565b600043905090565b60008060008060075460015481151561104157fe5b0660018190555060075460025481151561105757fe5b0660028190555060075460035481151561106d57fe5b06600381905550600254600154141561109a5760075460016002540181151561109257fe5b066002819055505b60035460015414156110c0576007546002600354018115156110b857fe5b066003819055505b60035460025414156110e6576007546001600354018115156110de57fe5b066003819055505b600093506000925060009150661c6bf526340000600660015481548110151561110b57fe5b9060005260206000209060030201600101541415611156576002600b60016000540381548110151561113957fe5b90600052602060002090015481151561114e57fe5b0493506111ea565b660e35fa931a0000600660015481548110151561116f57fe5b90600052602060002090600302016001015414156111ba576004600b60016000540381548110151561119d57fe5b9060005260206000209001548115156111b257fe5b0493506111e9565b6008600b6001600054038154811015156111d057fe5b9060005260206000209001548115156111e557fe5b0493505b5b661c6bf526340000600660025481548110151561120357fe5b906000526020600020906003020160010154141561124e576004600b60016000540381548110151561123157fe5b90600052602060002090015481151561124657fe5b0492506112e2565b660e35fa931a0000600660025481548110151561126757fe5b90600052602060002090600302016001015414156112b2576008600b60016000540381548110151561129557fe5b9060005260206000209001548115156112aa57fe5b0492506112e1565b6010600b6001600054038154811015156112c857fe5b9060005260206000209001548115156112dd57fe5b0492505b5b661c6bf52634000060066003548154811015156112fb57fe5b9060005260206000209060030201600101541415611346576008600b60016000540381548110151561132957fe5b90600052602060002090015481151561133e57fe5b0491506113da565b660e35fa931a0000600660035481548110151561135f57fe5b90600052602060002090600302016001015414156113aa576010600b60016000540381548110151561138d57fe5b9060005260206000209001548115156113a257fe5b0491506113d9565b6020600b6001600054038154811015156113c057fe5b9060005260206000209001548115156113d557fe5b0491505b5b836005600060066001548154811015156113f057fe5b906000526020600020906003020160000160009054906101000a900473ffffffffffffffffffffffffffffffffffffffff1673ffffffffffffffffffffffffffffffffffffffff1673ffffffffffffffffffffffffffffffffffffffff168152602001908152602001600020600082825401925050819055508260056000600660025481548110151561147f57fe5b906000526020600020906003020160000160009054906101000a900473ffffffffffffffffffffffffffffffffffffffff1673ffffffffffffffffffffffffffffffffffffffff1673ffffffffffffffffffffffffffffffffffffffff168152602001908152602001600020600082825401925050819055508160056000600660035481548110151561150e57fe5b906000526020600020906003020160000160009054906101000a900473ffffffffffffffffffffffffffffffffffffffff1673ffffffffffffffffffffffffffffffffffffffff1673ffffffffffffffffffffffffffffffffffffffff16815260200190815260200160002060008282540192505081905550838383600b60016000540381548110151561159e57fe5b906000526020600020900154030303905080600b6000548154811015156115c157fe5b906000526020600020900160008282540192505081905550600660006115e79190611723565b60076000905560095460088190555060326009600082825401925050819055506032600a60008282540192505081905550600b805480600101828161162c91906116c5565b916000526020600020900160008090919091505550600080815480929190600101919050555050505050565b606060405190810160405280600073ffffffffffffffffffffffffffffffffffffffff16815260200160008152602001600080191681525090565b8154818355818115116116c0576003028160030283600052602060002091820191016116bf9190611747565b5b505050565b8154818355818115116116ec578183600052602060002091820191016116eb919061179d565b5b505050565b81548183558181151161171e5760030281600302836000526020600020918201910161171d9190611747565b5b505050565b50805460008255600302906000526020600020908101906117449190611747565b50565b61179a91905b8082111561179657600080820160006101000a81549073ffffffffffffffffffffffffffffffffffffffff0219169055600182016000905560028201600090555060030161174d565b5090565b90565b6117bf91905b808211156117bb5760008160009055506001016117a3565b5090565b905600a165627a7a723058206308cf0ea2a328ccde90a9d0b79d37fcb50cc5a9bca36b16f65984d1a657b5090029",
  "source": "pragma\tsolidity\t^0.4.19;\t\n\ncontract\tLottery\t{\t\n    \n    struct Ticket{\n        address owner;\n        uint256 value;\n        bytes32 hashVal;\n    }\n    \n    // block period\n    uint\tconstant blockperiod = 50;\t\n\n    // current lottery number\n    uint    public  lotteryno;\n    \n    \n    // winner numbers that are updated by xoring the numbers given by the buyer at reveal stage\n\tuint    public  winnernumber1;\n\tuint    public  winnernumber2;\n\tuint    public  winnernumber3;\n\t\n    \n    // lottery mapping that map lotteryno to another mapping that maps ticket hash given at purchase stage to ticket value\n    mapping ( uint => mapping(address => Ticket[]) ) boughttickets;\n\n    \t// holds winners' addresses\n\tmapping (address => uint) winners;    \n    \n    // revealed ticket list\n\tTicket[] revealedtickets;\n\t\n\t// total number of revealed tickets for the lottery to be revealed next\n\tuint totalrevealed;\n\t\n\t// constant ticket prices\n\tuint\tconstant\tfullpay = 8 finney;\n\tuint\tconstant\thalfpay = 4 finney;\n\tuint\tconstant\tquarterpay = 2 finney;\n\t\n\t// purchase start, purchase end, reveal end times of lottery\n\tuint\tpublic\tstart; \n\tuint    public  buyend;\n\tuint\tpublic\trevealend;\n\t\n\t// current balances of lotteries\n\tuint[]  lotterybalance;\n\n\t\n\tfunction() public\t{\t\n\t\trevert();\t\n\t}\t\n\t\t\n\t//\tconstructor\t\t\n\tfunction Lottery() public\t{\t\n\t    lotteryno = 0;\n\t    lotterybalance.push(0);\n\t    \n\t\tstart\t=\tblock.number;\n\t\tbuyend =\tstart +  blockperiod;\n\t\trevealend = buyend + blockperiod;\n\t}\n\t\n\t//buy full ticket\n\tfunction buyfullticket(bytes32 tickethash) public payable {\n\t    if(block.number < buyend){\n\t         if(msg.value == fullpay){\n\t             Ticket memory t;\n\t             t.owner = msg.sender;\n\t             t.value = 8 finney;\n\t             t.hashVal = tickethash;\n\t             boughttickets[lotteryno][msg.sender].push(t);\n\t             lotterybalance[lotteryno] += 8 finney;\n\t         }else{\n\t             revert();\n\t         }\n\t    }else{\n\t        if(lotteryno != 0){\n\t            updatelottery();\n\t        }else{\n\t            start = buyend;\n\t            buyend += blockperiod;\n\t            lotterybalance.push(0);\n\t            lotteryno++;\n\t        }\n\t        buyfullticket(tickethash);\n\t    }\n\t}\n\t\n\t//buy half ticket\n\tfunction buyhalfticket(bytes32 tickethash) public payable {\n\t    if(block.number < buyend){\n\t         if(msg.value == halfpay){\n\t             Ticket memory t;\n\t             t.owner = msg.sender;\n\t             t.value = 4 finney;\n\t             t.hashVal = tickethash;\n\t             boughttickets[lotteryno][msg.sender].push(t);\n\t             lotterybalance[lotteryno] += 4 finney;\n\t         }else{\n\t             revert();\n\t         }\n\t    }else{\n\t        if(lotteryno != 0){\n\t            updatelottery();\n\t        }else{\n\t            start = buyend;\n\t            buyend += blockperiod;\n\t            lotteryno++;\n\t        }\n\t        buyhalfticket(tickethash);\n\t    }\n\t}\n\t\n\t//buy quarter ticket\n\tfunction buyquarterticket(bytes32 tickethash) public payable {\n\t    if(block.number < buyend){\n\t         if(msg.value == quarterpay){\n\t             Ticket memory t;\n\t             t.owner = msg.sender;\n\t             t.value = 2 finney;\n\t             t.hashVal = tickethash;\n\t             boughttickets[lotteryno][msg.sender].push(t);\n\t             lotterybalance[lotteryno] += 2 finney;\n\t         }else{\n\t             revert();\n\t         }\n\t    }else{\n\t        if(lotteryno != 0){\n\t            updatelottery();\n\t        }else{\n\t            start = buyend;\n\t            buyend += blockperiod;\n\t            lotterybalance.push(0);\n\t            lotteryno++;\n\t        }\n\t        buyquarterticket(tickethash);\n\t    }\n\t}\n\n\n\n   //reveal ticket\n   function revealticket(uint number1, uint number2, uint number3) public returns(bool) {\n        if( (lotteryno != 0 && block.number < revealend) ){\n\t         bytes32 hash = keccak256(number1,number2,number3,msg.sender);\n\t         uint totalticketsnotyetrevealed = boughttickets[lotteryno-1][msg.sender].length;\n\t         if(totalticketsnotyetrevealed != 0){\n\t                \n\t             bool flag = false;\n\t             for(uint i=0;i<totalticketsnotyetrevealed;i++){\n\t                 if(boughttickets[lotteryno-1][msg.sender][i].hashVal == hash){\n\t                    revealedtickets.push(boughttickets[lotteryno-1][msg.sender][i]);\n\t                    totalrevealed++;      \n\t                    // to prevent double reveal of the same ticket\n\t                    boughttickets[lotteryno-1][msg.sender][i] = boughttickets[lotteryno-1][msg.sender][totalticketsnotyetrevealed-1];\n\t                    boughttickets[lotteryno-1][msg.sender].length--;\n\t                    \n\t                    flag = true;\n\t                    winnernumber3 ^= number3;\n                        winnernumber2 ^= number2;\n\t                    winnernumber1 ^= number1;\n\t                    break;\n\t                 }\n\t             }\n\t             \n\t             // if flag is true, then user revealed a ticket, else he did not have any purchased ticket to reveal, so revert\n\t             if(flag){\n\t                 return true;\n\t             }else{\n\t                 return false;\n\t             }\n\t         }else{\n\t             return false;\n\t         }\n\t    }else{\n\t        /*if this is not the first lottery, then reveal end has reached and update lottery and return false because user missed reveal, \n\t            else do not let him reveal because reveal time has not came yet, so revert*/\n\t        if(lotteryno != 0){\n\t            updatelottery();\n\t            return false;\n\t        }else{\n\t            revert();\n\t        }\n\t    }\n   }\n   \n  \n  //get price if sender has balance greater than zero\n  function getprice() public payable {\n     uint amount = winners[msg.sender];\n     if(amount != 0){\n         if\t(!msg.sender.send(amount))\t{\t\n\t\t\t \trevert();\n\t\t }else{\n\t\t     winners[msg.sender] = 0;\n\t\t }\n     }else{\n         revert();\n     }\n\t  \n  }\n  \n\n   // updates lottery times after finding winners of the lottery\n   function updatelottery() private {\n       //i assumed there were at least 3 participants in each lottery at the end\n       winnernumber1 = winnernumber1 % totalrevealed;        \n       winnernumber2 = winnernumber2 % totalrevealed;        \n       winnernumber3 = winnernumber3 % totalrevealed;        \n       \n       //make sure that winner indexes are different\n       if(winnernumber1 == winnernumber2){\n           winnernumber2 = (winnernumber2 + 1) % totalrevealed;\n       }\n       if(winnernumber1 == winnernumber3){\n           winnernumber3 =  (winnernumber3 + 2) % totalrevealed;\n       }\n       if(winnernumber2 == winnernumber3){\n           winnernumber3 = (winnernumber3 + 1) % totalrevealed;\n       }\n       \n       uint prize1 = 0;\n       uint prize2 = 0;\n       uint prize3 = 0;\n       \n       if(revealedtickets[winnernumber1].value == 8 finney){\n           prize1 = lotterybalance[lotteryno-1]/2;\n       }else if(revealedtickets[winnernumber1].value == 4 finney){\n           prize1 = lotterybalance[lotteryno-1]/4;\n       }else{\n           prize1 = lotterybalance[lotteryno-1]/8;\n       }\n       \n       if(revealedtickets[winnernumber2].value == 8 finney){\n           prize2 = lotterybalance[lotteryno-1]/4;\n       }else if(revealedtickets[winnernumber2].value == 4 finney){\n           prize2 = lotterybalance[lotteryno-1]/8;\n       }else{\n           prize2 = lotterybalance[lotteryno-1]/16;\n       }\n       \n       if(revealedtickets[winnernumber3].value == 8 finney){\n           prize3 = lotterybalance[lotteryno-1]/8;\n       }else if(revealedtickets[winnernumber3].value == 4 finney){\n           prize3 = lotterybalance[lotteryno-1]/16;\n       }else{\n           prize3 = lotterybalance[lotteryno-1]/32;\n       }\n    \n       \n       // give the price first winner if there are many winners with the same number\n       winners[revealedtickets[winnernumber1].owner] += prize1;\n       winners[revealedtickets[winnernumber2].owner] += prize2;\n       winners[revealedtickets[winnernumber3].owner] += prize3;\n       \n       // update balance of the next lottery\n       uint leftovermoney = lotterybalance[lotteryno-1] - prize3 - prize2 - prize1;\n       lotterybalance[lotteryno] += leftovermoney;\n       \n       // delete revealed tickets to go next lottery reveal safe\n       delete revealedtickets;\n       delete totalrevealed;\n       \n       //update times\n       start = buyend;\n       buyend += blockperiod;\n       revealend += blockperiod;\n       \n       // push next lottery balance and update lottery number\n       lotterybalance.push(0);\n       lotteryno++;\n   }\n   \n   \n   \n   /*below methods are helpers when debug*/\n   function gethash(uint i,uint j,uint k) public view returns(bytes32 retval){\n       return keccak256(i,j,k,msg.sender);\n   }\n   \n   function getBlockNo() public view returns(uint){\n       return block.number;\n   }\n   \n   function getcontractbalance() constant public returns(uint retval) {\n       return address(this).balance;\n   }\n   \n   \n\t\t\t\t\t\n}\t\n",
  "sourcePath": "/home/aykut/Desktop/DecentralizedLottery/contracts/Lottery.sol",
  "compiler": {
    "name": "solc",
    "version": "0.4.21+commit.dfe3193c.Emscripten.clang"
  },
  "schemaVersion": "2.0.0",
  "updatedAt": "2018-04-17T10:10:22.408Z"
}