{
  "contractName": "Lottery",
  "abi": [
    {
      "constant": true,
      "inputs": [],
      "name": "revealend",
      "outputs": [
        {
          "name": "",
          "type": "uint256"
        }
      ],
      "payable": false,
      "stateMutability": "view",
      "type": "function"
    },
    {
      "constant": true,
      "inputs": [],
      "name": "buyend",
      "outputs": [
        {
          "name": "",
          "type": "uint256"
        }
      ],
      "payable": false,
      "stateMutability": "view",
      "type": "function"
    },
    {
      "constant": true,
      "inputs": [],
      "name": "winnernumber1",
      "outputs": [
        {
          "name": "",
          "type": "uint256"
        }
      ],
      "payable": false,
      "stateMutability": "view",
      "type": "function"
    },
    {
      "constant": true,
      "inputs": [],
      "name": "winnernumber3",
      "outputs": [
        {
          "name": "",
          "type": "uint256"
        }
      ],
      "payable": false,
      "stateMutability": "view",
      "type": "function"
    },
    {
      "constant": true,
      "inputs": [],
      "name": "start",
      "outputs": [
        {
          "name": "",
          "type": "uint256"
        }
      ],
      "payable": false,
      "stateMutability": "view",
      "type": "function"
    },
    {
      "constant": true,
      "inputs": [],
      "name": "lotteryno",
      "outputs": [
        {
          "name": "",
          "type": "uint256"
        }
      ],
      "payable": false,
      "stateMutability": "view",
      "type": "function"
    },
    {
      "constant": true,
      "inputs": [],
      "name": "winnernumber2",
      "outputs": [
        {
          "name": "",
          "type": "uint256"
        }
      ],
      "payable": false,
      "stateMutability": "view",
      "type": "function"
    },
    {
      "inputs": [],
      "payable": false,
      "stateMutability": "nonpayable",
      "type": "constructor"
    },
    {
      "payable": false,
      "stateMutability": "nonpayable",
      "type": "fallback"
    },
    {
      "constant": false,
      "inputs": [
        {
          "name": "tickethash",
          "type": "bytes32"
        }
      ],
      "name": "buyfullticket",
      "outputs": [],
      "payable": true,
      "stateMutability": "payable",
      "type": "function"
    },
    {
      "constant": false,
      "inputs": [
        {
          "name": "tickethash",
          "type": "bytes32"
        }
      ],
      "name": "buyhalfticket",
      "outputs": [],
      "payable": true,
      "stateMutability": "payable",
      "type": "function"
    },
    {
      "constant": false,
      "inputs": [
        {
          "name": "tickethash",
          "type": "bytes32"
        }
      ],
      "name": "buyquarterticket",
      "outputs": [],
      "payable": true,
      "stateMutability": "payable",
      "type": "function"
    },
    {
      "constant": false,
      "inputs": [
        {
          "name": "number1",
          "type": "uint256"
        },
        {
          "name": "number2",
          "type": "uint256"
        },
        {
          "name": "number3",
          "type": "uint256"
        }
      ],
      "name": "revealticket",
      "outputs": [],
      "payable": false,
      "stateMutability": "nonpayable",
      "type": "function"
    },
    {
      "constant": false,
      "inputs": [],
      "name": "getprice",
      "outputs": [],
      "payable": true,
      "stateMutability": "payable",
      "type": "function"
    },
    {
      "constant": true,
      "inputs": [],
      "name": "getcontractbalance",
      "outputs": [
        {
          "name": "retval",
          "type": "uint256"
        }
      ],
      "payable": false,
      "stateMutability": "view",
      "type": "function"
    },
    {
      "constant": true,
      "inputs": [
        {
          "name": "i",
          "type": "uint256"
        },
        {
          "name": "j",
          "type": "uint256"
        },
        {
          "name": "k",
          "type": "uint256"
        }
      ],
      "name": "gethash",
      "outputs": [
        {
          "name": "retval",
          "type": "bytes32"
        }
      ],
      "payable": false,
      "stateMutability": "view",
      "type": "function"
    },
    {
      "constant": false,
      "inputs": [
        {
          "name": "val",
          "type": "uint256"
        }
      ],
      "name": "setstart",
      "outputs": [],
      "payable": false,
      "stateMutability": "nonpayable",
      "type": "function"
    },
    {
      "constant": false,
      "inputs": [
        {
          "name": "val",
          "type": "uint256"
        }
      ],
      "name": "setbuyend",
      "outputs": [],
      "payable": false,
      "stateMutability": "nonpayable",
      "type": "function"
    },
    {
      "constant": false,
      "inputs": [
        {
          "name": "val",
          "type": "uint256"
        }
      ],
      "name": "setrevealend",
      "outputs": [],
      "payable": false,
      "stateMutability": "nonpayable",
      "type": "function"
    }
  ],
  "bytecode": "0x6060604052341561000f57600080fd5b600080819055504361013481905550614e20610134540161013581905550614e2061013554016101368190555061106a8061004b6000396000f3006060604052600436106100f1576000357c0100000000000000000000000000000000000000000000000000000000900463ffffffff1680630fcb598414610101578063175a5afe1461010b578063355822fd14610127578063474d6e0f1461017857806348fc57f2146101ad5780634e5077f2146101d6578063594aea58146101ff5780639a558891146102285780639c2aa0f814610251578063b277fbf914610274578063b286039614610290578063be9a6555146102b3578063cfe03619146102dc578063d10d7eb614610305578063d494997414610321578063d9cb44591461034a578063f28bf1461461036d575b34156100fc57600080fd5b600080fd5b610109610396565b005b6101256004808035600019169060200190919050506104aa565b005b341561013257600080fd5b61015a600480803590602001909190803590602001909190803590602001909190505061056b565b60405180826000191660001916815260200191505060405180910390f35b341561018357600080fd5b6101ab60048080359060200190919080359060200190919080359060200190919050506105df565b005b34156101b857600080fd5b6101c0610a37565b6040518082815260200191505060405180910390f35b34156101e157600080fd5b6101e9610a3e565b6040518082815260200191505060405180910390f35b341561020a57600080fd5b610212610a45565b6040518082815260200191505060405180910390f35b341561023357600080fd5b61023b610a4b565b6040518082815260200191505060405180910390f35b341561025c57600080fd5b6102726004808035906020019091905050610a51565b005b61028e600480803560001916906020019091905050610a5c565b005b341561029b57600080fd5b6102b16004808035906020019091905050610b1d565b005b34156102be57600080fd5b6102c6610b28565b6040518082815260200191505060405180910390f35b34156102e757600080fd5b6102ef610b2f565b6040518082815260200191505060405180910390f35b61031f600480803560001916906020019091905050610b35565b005b341561032c57600080fd5b610334610bf6565b6040518082815260200191505060405180910390f35b341561035557600080fd5b61036b6004808035906020019091905050610bfc565b005b341561037857600080fd5b610380610c07565b6040518082815260200191505060405180910390f35b6000600660003373ffffffffffffffffffffffffffffffffffffffff1673ffffffffffffffffffffffffffffffffffffffff168152602001908152602001600020541415156104a3573373ffffffffffffffffffffffffffffffffffffffff166108fc600660003373ffffffffffffffffffffffffffffffffffffffff1673ffffffffffffffffffffffffffffffffffffffff168152602001908152602001600020549081150290604051600060405180830381858888f193505050501561049e576000600660003373ffffffffffffffffffffffffffffffffffffffff1673ffffffffffffffffffffffffffffffffffffffff168152602001908152602001600020819055505b6104a8565b600080fd5b565b610135544310156105565766071afd498d000034141561054c5766071afd498d00006005600080548152602001908152602001600020600083600019166000191681526020019081526020016000208190555060d060005460648110151561050e57fe5b016000815480929190600101919050555066071afd498d000061013760005460648110151561053957fe5b0160008282540192505081905550610551565b600080fd5b610568565b61055e610c26565b610567816104aa565b5b50565b600083838333604051808581526020018481526020018381526020018273ffffffffffffffffffffffffffffffffffffffff1673ffffffffffffffffffffffffffffffffffffffff166c01000000000000000000000000028152601401945050505050604051809103902090509392505050565b600080600061013654614e2043031015610a265785858533604051808581526020018481526020018381526020018273ffffffffffffffffffffffffffffffffffffffff1673ffffffffffffffffffffffffffffffffffffffff166c0100000000000000000000000002815260140194505050505060405180910390209250600160009054906101000a900460ff1615610680576001600054039150610686565b60005491505b6000600560008481526020019081526020016000206000856000191660001916815260200190815260200160002054141515610a1c5766071afd498d000060056000848152602001908152602001600020600085600019166000191681526020019081526020016000205414156107e957338160000160006101000a81548173ffffffffffffffffffffffffffffffffffffffff021916908373ffffffffffffffffffffffffffffffffffffffff16021790555066071afd498d0000816001018190555080600760cf5460648110151561075c57fe5b600202016000820160009054906101000a900473ffffffffffffffffffffffffffffffffffffffff168160000160006101000a81548173ffffffffffffffffffffffffffffffffffffffff021916908373ffffffffffffffffffffffffffffffffffffffff1602179055506001820154816001015590505083600460008282541892505081905550610a05565b660e35fa931a0000600560008481526020019081526020016000206000856000191660001916815260200190815260200160002054141561091657338160000160006101000a81548173ffffffffffffffffffffffffffffffffffffffff021916908373ffffffffffffffffffffffffffffffffffffffff160217905550660e35fa931a0000816001018190555080600760cf5460648110151561088957fe5b600202016000820160009054906101000a900473ffffffffffffffffffffffffffffffffffffffff168160000160006101000a81548173ffffffffffffffffffffffffffffffffffffffff021916908373ffffffffffffffffffffffffffffffffffffffff1602179055506001820154816001015590505084600360008282541892505081905550610a04565b338160000160006101000a81548173ffffffffffffffffffffffffffffffffffffffff021916908373ffffffffffffffffffffffffffffffffffffffff160217905550661c6bf526340000816001018190555080600760cf5460648110151561097b57fe5b600202016000820160009054906101000a900473ffffffffffffffffffffffffffffffffffffffff168160000160006101000a81548173ffffffffffffffffffffffffffffffffffffffff021916908373ffffffffffffffffffffffffffffffffffffffff16021790555060018201548160010155905050856002600082825418925050819055505b5b60cf60008154809291906001019190505550610a21565b600080fd5b610a2f565b610a2e610c71565b5b505050505050565b6101365481565b6101355481565b60025481565b60045481565b806101358190555050565b61013554431015610b0857660e35fa931a0000341415610afe57660e35fa931a00006005600080548152602001908152602001600020600083600019166000191681526020019081526020016000208190555060d0600054606481101515610ac057fe5b0160008154809291906001019190505550660e35fa931a0000610137600054606481101515610aeb57fe5b0160008282540192505081905550610b03565b600080fd5b610b1a565b610b10610c26565b610b1981610a5c565b5b50565b806101348190555050565b6101345481565b60005481565b61013554431015610be157661c6bf526340000341415610bd757661c6bf5263400006005600080548152602001908152602001600020600083600019166000191681526020019081526020016000208190555060d0600054606481101515610b9957fe5b0160008154809291906001019190505550661c6bf526340000610137600054606481101515610bc457fe5b0160008282540192505081905550610bdc565b600080fd5b610bf3565b610be9610c26565b610bf281610b35565b5b50565b60035481565b806101368190555050565b60003073ffffffffffffffffffffffffffffffffffffffff1631905090565b6101355461013481905550614e206101356000828254019250508190555060018060006101000a81548160ff0219169083151502179055506000808154809291906001019190505550565b6000806000806000600160009054906101000a900460ff1615610c9b576001600054039450610ca1565b60005494505b60d085606481101515610cb057fe5b0154600254811515610cbe57fe5b0660028190555060d085606481101515610cd457fe5b0154600354811515610ce257fe5b0660038190555060d085606481101515610cf857fe5b0154600454811515610d0657fe5b066004819055506003546002541415610d2c576003600081548092919060010191905055505b6004546002541415610d4a5760026004600082825401925050819055505b6004546003541415610d69576004600081548092919060010191905055505b600261013786606481101515610d7b57fe5b0154811515610d8657fe5b049350600461013786606481101515610d9b57fe5b0154811515610da657fe5b049250600861013786606481101515610dbb57fe5b0154811515610dc657fe5b04915083600660006007600254606481101515610ddf57fe5b6002020160000160009054906101000a900473ffffffffffffffffffffffffffffffffffffffff1673ffffffffffffffffffffffffffffffffffffffff1673ffffffffffffffffffffffffffffffffffffffff1681526020019081526020016000206000828254019250508190555082600660006007600354606481101515610e6457fe5b6002020160000160009054906101000a900473ffffffffffffffffffffffffffffffffffffffff1673ffffffffffffffffffffffffffffffffffffffff1673ffffffffffffffffffffffffffffffffffffffff1681526020019081526020016000206000828254019250508190555081600660006007600454606481101515610ee957fe5b6002020160000160009054906101000a900473ffffffffffffffffffffffffffffffffffffffff1673ffffffffffffffffffffffffffffffffffffffff1673ffffffffffffffffffffffffffffffffffffffff1681526020019081526020016000206000828254019250508190555083838361013788606481101515610f6b57fe5b015403030390508061013786606481101515610f8357fe5b016000828254019250508190555060076000610f9f9190610fda565b60cf60009055614e20610136600082825401925050819055506000600160006101000a81548160ff0219169083151502179055505050505050565b508060646002020190610fed9190610ff0565b50565b61103b91905b8082111561103757600080820160006101000a81549073ffffffffffffffffffffffffffffffffffffffff0219169055600182016000905550600201610ff6565b5090565b905600a165627a7a7230582025c0722a0dd78d26e21fa4296129c31b4e9bef3b100f3860e388b2273ee233bd0029",
  "source": "pragma\tsolidity\t^0.4.19;\t\n\ncontract\tLottery\t{\t\n    \n    struct Ticket{\n        address owner;\n        uint value;\n    }\n    \n    // current lottery number\n    uint    public  lotteryno;\n    \n    // whether next lottery is started or another\n    bool nextstarted;\n    \n    // winner numbers that are updated by xoring the numbers given by the buyer at reveal stage\n\tuint    public  winnernumber1;\n\tuint    public  winnernumber2;\n\tuint    public  winnernumber3;\n\t\n\t// lottery mapping that map lotteryno to another mapping that maps ticket hash given at purchase stage to ticket value\n    mapping ( uint => mapping(bytes32 => uint) ) boughttickets;\n\n    \t// holds winners' addresses\n\tmapping (address => uint) winners;    \n    \n    // revealed ticket list\n\tTicket[100] revealedtickets;\n\t\n\n\t\n\t// total number of revealed tickets for the lottery to be revealed next\n\tuint totalrevealed;\n\t\n\t// total participants in lotteries\n\tuint[100]   totalparticipants;\n\n\t// constant ticket prices\n\tuint\tconstant\tfullpay\t= 8 finney;\n\tuint\tconstant\thalfpay\t= 4 finney;\n\tuint\tconstant\tquarterpay = 2 finney;\n\t\n\t// purchase start, purchase end, reveal end times of lottery\n\tuint\tpublic\tstart; \n\tuint    public  buyend;\n\tuint\tpublic\trevealend;\n\t\n\t// current balances of lotteries\n\tuint[100]  lotterybalance;\n\n\t\n\tfunction()\t{\t\n\t\tthrow\t;\t\t\n\t}\t\n\t\t\n\t//\tconstructor\t\t\n\tfunction\tLottery()\t{\t\n\t    lotteryno = 0;\n\t    \n\t\tstart\t=\tblock.number;\n\t\tbuyend =\tstart +  20000;\n\t\trevealend = buyend + 20000;\n\t}\n\t\n\t//buy full ticket\n\tfunction buyfullticket(bytes32 tickethash) public payable {\n\t    if(block.number < buyend){\n\t         if(msg.value == fullpay){\n\t             boughttickets[lotteryno][tickethash] = 8 finney;\n\t             totalparticipants[lotteryno]++;\n\t             lotterybalance[lotteryno] += 8 finney;\n\t         }else{\n\t             throw;\n\t         }\n\t    }else{\n\t        startnewlottery();\n\t        buyfullticket(tickethash);\n\t    }\n\t}\n\t\n\t//buy half ticket\n\tfunction buyhalfticket(bytes32 tickethash) public payable {\n\t    if(block.number < buyend){\n\t         if(msg.value == halfpay){\n\t             boughttickets[lotteryno][tickethash] = 4 finney;\n\t             totalparticipants[lotteryno]++;\n\t             lotterybalance[lotteryno] += 4 finney;\n\t         }else{\n\t             throw;\n\t         }\n\t    }else{\n\t        startnewlottery();\n\t        buyhalfticket(tickethash);\n\t    }\n\t}\n\t\n\t//buy quarter ticket\n\tfunction buyquarterticket(bytes32 tickethash) public payable {\n\t    if(block.number < buyend){\n\t         if(msg.value == quarterpay){\n\t             boughttickets[lotteryno][tickethash] = 2 finney;\n\t             totalparticipants[lotteryno]++;\n\t             lotterybalance[lotteryno] += 2 finney;\n\t         }else{\n\t             throw;\n\t         }\n\t    }else{\n\t        startnewlottery();\n\t        buyquarterticket(tickethash);\n\t    }\n\t}\n\n\n\n   //reveal ticket\n   function revealticket(uint number1, uint number2, uint number3) public {\n        if( (block.number - 20000) < revealend){\n\t         bytes32 hash = keccak256(number1,number2,number3,msg.sender);\n\t         uint currentlotteryno;\n             if(nextstarted){\n                 currentlotteryno = lotteryno-1;\n             }else{\n                 currentlotteryno = lotteryno;\n             }\n\t         if(boughttickets[currentlotteryno][hash] != 0){\n\t             Ticket t;\n\t             if(boughttickets[currentlotteryno][hash] == 2 finney){\n\t                 t.owner = msg.sender;\n\t                 t.value = 2 finney;\n\t                 revealedtickets[totalrevealed] = t;\n\t                 winnernumber3 ^= number3;\n\t             }else if(boughttickets[currentlotteryno][hash] == 4 finney){\n\t                 t.owner = msg.sender;\n\t                 t.value = 4 finney;\n\t                 revealedtickets[totalrevealed] = t;\n\t                 winnernumber2 ^= number2;\n\t             }else{\n\t                 t.owner = msg.sender;\n\t                 t.value = 8 finney;\n\t                 revealedtickets[totalrevealed] = t;\n\t                 winnernumber1 ^= number1;\n\t             }\n\t             totalrevealed++;\n\t         }else{\n\t             throw;\n\t         }\n\t    }else{\n\t        endlottery();\n\t    }\n   }\n   \n  \n  //get price if sender has balance greater than zero\n  function getprice() public payable {\n        \n     if(winners[msg.sender] != 0){\n         if\t(msg.sender.send(winners[msg.sender]))\t{\t\n\t\t\t winners[msg.sender] = 0;\t\n\t\t }\t\n     }else{\n         throw;\n     }\n\t  \n  }\n  \n  // get current balance of the contract\n   function getcontractbalance() constant public returns(uint retval) {\n       return this.balance;\n   }\n   \n   // update start and end times of two lotteries\n   function startnewlottery() private {\n        \n       start = buyend;\n       buyend += 20000;\n       \n       nextstarted = true;\n       lotteryno++;\n   }\n   \n   // finds winners and loads money to their accounts\n   function endlottery() private {\n       \n       uint revealedlotteryno;\n       if(nextstarted){\n          revealedlotteryno = lotteryno-1;\n       }else{\n          revealedlotteryno = lotteryno;\n       }\n\n       //i assumed there were at least 3 participants in each lottery at the end\n       winnernumber1 = winnernumber1 % totalparticipants[revealedlotteryno];        \n       winnernumber2 = winnernumber2 % totalparticipants[revealedlotteryno];        \n       winnernumber3 = winnernumber3 % totalparticipants[revealedlotteryno];        \n       \n       //make sure that winner indexes are different\n       if(winnernumber1 == winnernumber2){\n           winnernumber2++;\n       }\n       if(winnernumber1 == winnernumber3){\n           winnernumber3+=2;\n       }\n       if(winnernumber2 == winnernumber3){\n           winnernumber3++;\n       }\n       \n       uint prize1 = lotterybalance[revealedlotteryno]/2;\n       uint prize2 = lotterybalance[revealedlotteryno]/4;\n       uint prize3 = lotterybalance[revealedlotteryno]/8;\n       \n       // give the price first winner if there are many winners with the same number\n       winners[revealedtickets[winnernumber1].owner] += prize1;\n       winners[revealedtickets[winnernumber2].owner] += prize2;\n       winners[revealedtickets[winnernumber3].owner] += prize3;\n       \n       // update balance of the next lottery\n       uint leftovermoney = lotterybalance[revealedlotteryno] - prize3 - prize2 - prize1;\n       lotterybalance[revealedlotteryno] += leftovermoney;\n       \n       // delete revealed tickets to go next lottery reveal safe\n       delete revealedtickets;\n       delete totalrevealed;\n       \n       //update revealend time\n       revealend += 20000;\n       \n       // reset nexstarted\n       nextstarted = false;\n\n       \n   }\n   \n   /*below methods are helpers when debug*/\n   function gethash(uint i,uint j,uint k) public view returns(bytes32 retval){\n       return keccak256(i,j,k,msg.sender);\n   }\n   \n   function setstart(uint val) public {\n       start = val;\n   }\n   \n   function setbuyend(uint val) public {\n       buyend = val;\n   }\n   \n   function setrevealend(uint val) public{\n       revealend = val;\n   }\n   \n\t\t\t\t\t\n}\t\n",
  "sourcePath": "/home/aykut/Desktop/DecentralizedLottery/contracts/lottery.sol",
  "compiler": {
    "name": "solc",
    "version": "0.4.21+commit.dfe3193c.Emscripten.clang"
  },
  "schemaVersion": "2.0.0",
  "updatedAt": "2018-04-09T14:12:00.053Z"
}