{
  "contractName": "Lottery",
  "abi": [
    {
      "constant": true,
      "inputs": [],
      "name": "revealend",
      "outputs": [
        {
          "name": "",
          "type": "uint256"
        }
      ],
      "payable": false,
      "stateMutability": "view",
      "type": "function"
    },
    {
      "constant": true,
      "inputs": [],
      "name": "buyend",
      "outputs": [
        {
          "name": "",
          "type": "uint256"
        }
      ],
      "payable": false,
      "stateMutability": "view",
      "type": "function"
    },
    {
      "constant": true,
      "inputs": [],
      "name": "winnernumber1",
      "outputs": [
        {
          "name": "",
          "type": "uint256"
        }
      ],
      "payable": false,
      "stateMutability": "view",
      "type": "function"
    },
    {
      "constant": true,
      "inputs": [],
      "name": "winnernumber3",
      "outputs": [
        {
          "name": "",
          "type": "uint256"
        }
      ],
      "payable": false,
      "stateMutability": "view",
      "type": "function"
    },
    {
      "constant": true,
      "inputs": [],
      "name": "start",
      "outputs": [
        {
          "name": "",
          "type": "uint256"
        }
      ],
      "payable": false,
      "stateMutability": "view",
      "type": "function"
    },
    {
      "constant": true,
      "inputs": [],
      "name": "lotteryno",
      "outputs": [
        {
          "name": "",
          "type": "uint256"
        }
      ],
      "payable": false,
      "stateMutability": "view",
      "type": "function"
    },
    {
      "constant": true,
      "inputs": [],
      "name": "winnernumber2",
      "outputs": [
        {
          "name": "",
          "type": "uint256"
        }
      ],
      "payable": false,
      "stateMutability": "view",
      "type": "function"
    },
    {
      "inputs": [],
      "payable": false,
      "stateMutability": "nonpayable",
      "type": "constructor"
    },
    {
      "payable": false,
      "stateMutability": "nonpayable",
      "type": "fallback"
    },
    {
      "constant": false,
      "inputs": [
        {
          "name": "tickethash",
          "type": "bytes32"
        }
      ],
      "name": "buyfullticket",
      "outputs": [],
      "payable": true,
      "stateMutability": "payable",
      "type": "function"
    },
    {
      "constant": false,
      "inputs": [
        {
          "name": "tickethash",
          "type": "bytes32"
        }
      ],
      "name": "buyhalfticket",
      "outputs": [],
      "payable": true,
      "stateMutability": "payable",
      "type": "function"
    },
    {
      "constant": false,
      "inputs": [
        {
          "name": "tickethash",
          "type": "bytes32"
        }
      ],
      "name": "buyquarterticket",
      "outputs": [],
      "payable": true,
      "stateMutability": "payable",
      "type": "function"
    },
    {
      "constant": false,
      "inputs": [
        {
          "name": "number1",
          "type": "uint256"
        },
        {
          "name": "number2",
          "type": "uint256"
        },
        {
          "name": "number3",
          "type": "uint256"
        }
      ],
      "name": "revealticket",
      "outputs": [],
      "payable": false,
      "stateMutability": "nonpayable",
      "type": "function"
    },
    {
      "constant": false,
      "inputs": [],
      "name": "getprice",
      "outputs": [],
      "payable": true,
      "stateMutability": "payable",
      "type": "function"
    },
    {
      "constant": true,
      "inputs": [],
      "name": "getcontractbalance",
      "outputs": [
        {
          "name": "retval",
          "type": "uint256"
        }
      ],
      "payable": false,
      "stateMutability": "view",
      "type": "function"
    },
    {
      "constant": true,
      "inputs": [
        {
          "name": "i",
          "type": "uint256"
        },
        {
          "name": "j",
          "type": "uint256"
        },
        {
          "name": "k",
          "type": "uint256"
        }
      ],
      "name": "gethash",
      "outputs": [
        {
          "name": "retval",
          "type": "bytes32"
        }
      ],
      "payable": false,
      "stateMutability": "view",
      "type": "function"
    },
    {
      "constant": false,
      "inputs": [
        {
          "name": "val",
          "type": "uint256"
        }
      ],
      "name": "setstart",
      "outputs": [],
      "payable": false,
      "stateMutability": "nonpayable",
      "type": "function"
    },
    {
      "constant": false,
      "inputs": [
        {
          "name": "val",
          "type": "uint256"
        }
      ],
      "name": "setbuyend",
      "outputs": [],
      "payable": false,
      "stateMutability": "nonpayable",
      "type": "function"
    },
    {
      "constant": false,
      "inputs": [
        {
          "name": "val",
          "type": "uint256"
        }
      ],
      "name": "setrevealend",
      "outputs": [],
      "payable": false,
      "stateMutability": "nonpayable",
      "type": "function"
    }
  ],
  "bytecode": "0x6060604052341561000f57600080fd5b60008081905550600b805480600101828161002a9190610065565b91600052602060002090016000809091909150555043600881905550614e2060085401600981905550614e2060095401600a819055506100b6565b81548183558181151161008c5781836000526020600020918201910161008b9190610091565b5b505050565b6100b391905b808211156100af576000816000905550600101610097565b5090565b90565b61133a806100c56000396000f3006060604052600436106100f1576000357c0100000000000000000000000000000000000000000000000000000000900463ffffffff1680630fcb598414610101578063175a5afe1461010b578063355822fd14610127578063474d6e0f1461017857806348fc57f2146101ad5780634e5077f2146101d6578063594aea58146101ff5780639a558891146102285780639c2aa0f814610251578063b277fbf914610274578063b286039614610290578063be9a6555146102b3578063cfe03619146102dc578063d10d7eb614610305578063d494997414610321578063d9cb44591461034a578063f28bf1461461036d575b34156100fc57600080fd5b600080fd5b610109610396565b005b6101256004808035600019169060200190919050506104aa565b005b341561013257600080fd5b61015a60048080359060200190919080359060200190919080359060200190919050506105b7565b60405180826000191660001916815260200191505060405180910390f35b341561018357600080fd5b6101ab600480803590602001909190803590602001909190803590602001909190505061062b565b005b34156101b857600080fd5b6101c06109bc565b6040518082815260200191505060405180910390f35b34156101e157600080fd5b6101e96109c2565b6040518082815260200191505060405180910390f35b341561020a57600080fd5b6102126109c8565b6040518082815260200191505060405180910390f35b341561023357600080fd5b61023b6109ce565b6040518082815260200191505060405180910390f35b341561025c57600080fd5b61027260048080359060200190919050506109d4565b005b61028e6004808035600019169060200190919050506109de565b005b341561029b57600080fd5b6102b16004808035906020019091905050610ac2565b005b34156102be57600080fd5b6102c6610acc565b6040518082815260200191505060405180910390f35b34156102e757600080fd5b6102ef610ad2565b6040518082815260200191505060405180910390f35b61031f600480803560001916906020019091905050610ad8565b005b341561032c57600080fd5b610334610bbc565b6040518082815260200191505060405180910390f35b341561035557600080fd5b61036b6004808035906020019091905050610bc2565b005b341561037857600080fd5b610380610bcc565b6040518082815260200191505060405180910390f35b6000600560003373ffffffffffffffffffffffffffffffffffffffff1673ffffffffffffffffffffffffffffffffffffffff168152602001908152602001600020541415156104a3573373ffffffffffffffffffffffffffffffffffffffff166108fc600560003373ffffffffffffffffffffffffffffffffffffffff1673ffffffffffffffffffffffffffffffffffffffff168152602001908152602001600020549081150290604051600060405180830381858888f193505050501561049e576000600560003373ffffffffffffffffffffffffffffffffffffffff1673ffffffffffffffffffffffffffffffffffffffff168152602001908152602001600020819055505b6104a8565b600080fd5b565b60095443101561053c5766071afd498d00003414156105325766071afd498d00006004600080548152602001908152602001600020600083600019166000191681526020019081526020016000208190555066071afd498d0000600b60005481548110151561051557fe5b906000526020600020900160008282540192505081905550610537565b600080fd5b6105b4565b600080541415156105545761054f610beb565b6105aa565b600954600881905550614e20600960008282540192505081905550600b80548060010182816105839190611219565b91600052602060002090016000809091909150555060008081548092919060010191905055505b6105b3816104aa565b5b50565b600083838333604051808581526020018481526020018381526020018273ffffffffffffffffffffffffffffffffffffffff1673ffffffffffffffffffffffffffffffffffffffff166c01000000000000000000000000028152601401945050505050604051809103902090509392505050565b60008060008054141580156106415750600a5443105b156109975784848433604051808581526020018481526020018381526020018273ffffffffffffffffffffffffffffffffffffffff1673ffffffffffffffffffffffffffffffffffffffff166c01000000000000000000000000028152601401945050505050604051809103902091506000600460006001600054038152602001908152602001600020600084600019166000191681526020019081526020016000205414151561098d5766071afd498d00006004600060016000540381526020019081526020016000206000846000191660001916815260200190815260200160002054141561079457338160000160006101000a81548173ffffffffffffffffffffffffffffffffffffffff021916908373ffffffffffffffffffffffffffffffffffffffff16021790555066071afd498d00008160010181905550826003600082825418925050819055506108a1565b660e35fa931a00006004600060016000540381526020019081526020016000206000846000191660001916815260200190815260200160002054141561083c57338160000160006101000a81548173ffffffffffffffffffffffffffffffffffffffff021916908373ffffffffffffffffffffffffffffffffffffffff160217905550660e35fa931a00008160010181905550836002600082825418925050819055506108a0565b338160000160006101000a81548173ffffffffffffffffffffffffffffffffffffffff021916908373ffffffffffffffffffffffffffffffffffffffff160217905550661c6bf5263400008160010181905550846001600082825418925050819055505b5b600680548060010182816108b59190611245565b916000526020600020906002020160008390919091506000820160009054906101000a900473ffffffffffffffffffffffffffffffffffffffff168160000160006101000a81548173ffffffffffffffffffffffffffffffffffffffff021916908373ffffffffffffffffffffffffffffffffffffffff1602179055506001820154816001015550505060076000815480929190600101919050555060006004600060016000540381526020019081526020016000206000846000191660001916815260200190815260200160002081905550610992565b600080fd5b6109b5565b600080541415156109af576109aa610beb565b6109b4565b600080fd5b5b5050505050565b600a5481565b60095481565b60015481565b60035481565b8060098190555050565b600954431015610a7057660e35fa931a0000341415610a6657660e35fa931a000060046000805481526020019081526020016000206000836000191660001916815260200190815260200160002081905550660e35fa931a0000600b600054815481101515610a4957fe5b906000526020600020900160008282540192505081905550610a6b565b600080fd5b610abf565b60008054141515610a8857610a83610beb565b610ab5565b600954600881905550614e2060096000828254019250508190555060008081548092919060010191905055505b610abe816109de565b5b50565b8060088190555050565b60085481565b60005481565b600954431015610b6a57661c6bf526340000341415610b6057661c6bf52634000060046000805481526020019081526020016000206000836000191660001916815260200190815260200160002081905550661c6bf526340000600b600054815481101515610b4357fe5b906000526020600020900160008282540192505081905550610b65565b600080fd5b610bb9565b60008054141515610b8257610b7d610beb565b610baf565b600954600881905550614e2060096000828254019250508190555060008081548092919060010191905055505b610bb881610ad8565b5b50565b60025481565b80600a8190555050565b60003073ffffffffffffffffffffffffffffffffffffffff1631905090565b600080600080600754600154811515610c0057fe5b06600181905550600754600254811515610c1657fe5b06600281905550600754600354811515610c2c57fe5b066003819055506002546001541415610c5957600754600160025401811515610c5157fe5b066002819055505b6003546001541415610c7f57600754600260035401811515610c7757fe5b066003819055505b6003546002541415610ca557600754600160035401811515610c9d57fe5b066003819055505b600093506000925060009150661c6bf5263400006006600154815481101515610cca57fe5b9060005260206000209060020201600101541415610d15576002600b600160005403815481101515610cf857fe5b906000526020600020900154811515610d0d57fe5b049350610da9565b660e35fa931a00006006600154815481101515610d2e57fe5b9060005260206000209060020201600101541415610d79576004600b600160005403815481101515610d5c57fe5b906000526020600020900154811515610d7157fe5b049350610da8565b6008600b600160005403815481101515610d8f57fe5b906000526020600020900154811515610da457fe5b0493505b5b661c6bf5263400006006600254815481101515610dc257fe5b9060005260206000209060020201600101541415610e0d576004600b600160005403815481101515610df057fe5b906000526020600020900154811515610e0557fe5b049250610ea1565b660e35fa931a00006006600254815481101515610e2657fe5b9060005260206000209060020201600101541415610e71576008600b600160005403815481101515610e5457fe5b906000526020600020900154811515610e6957fe5b049250610ea0565b6010600b600160005403815481101515610e8757fe5b906000526020600020900154811515610e9c57fe5b0492505b5b661c6bf5263400006006600354815481101515610eba57fe5b9060005260206000209060020201600101541415610f05576008600b600160005403815481101515610ee857fe5b906000526020600020900154811515610efd57fe5b049150610f99565b660e35fa931a00006006600354815481101515610f1e57fe5b9060005260206000209060020201600101541415610f69576010600b600160005403815481101515610f4c57fe5b906000526020600020900154811515610f6157fe5b049150610f98565b6020600b600160005403815481101515610f7f57fe5b906000526020600020900154811515610f9457fe5b0491505b5b83600560006006600154815481101515610faf57fe5b906000526020600020906002020160000160009054906101000a900473ffffffffffffffffffffffffffffffffffffffff1673ffffffffffffffffffffffffffffffffffffffff1673ffffffffffffffffffffffffffffffffffffffff168152602001908152602001600020600082825401925050819055508260056000600660025481548110151561103e57fe5b906000526020600020906002020160000160009054906101000a900473ffffffffffffffffffffffffffffffffffffffff1673ffffffffffffffffffffffffffffffffffffffff1673ffffffffffffffffffffffffffffffffffffffff16815260200190815260200160002060008282540192505081905550816005600060066003548154811015156110cd57fe5b906000526020600020906002020160000160009054906101000a900473ffffffffffffffffffffffffffffffffffffffff1673ffffffffffffffffffffffffffffffffffffffff1673ffffffffffffffffffffffffffffffffffffffff16815260200190815260200160002060008282540192505081905550838383600b60016000540381548110151561115d57fe5b906000526020600020900154030303905080600b60005481548110151561118057fe5b906000526020600020900160008282540192505081905550600660006111a69190611277565b600760009055600954600881905550614e20600960008282540192505081905550614e20600a60008282540192505081905550600b80548060010182816111ed9190611219565b916000526020600020900160008090919091505550600080815480929190600101919050555050505050565b8154818355818115116112405781836000526020600020918201910161123f919061129b565b5b505050565b8154818355818115116112725760020281600202836000526020600020918201910161127191906112c0565b5b505050565b508054600082556002029060005260206000209081019061129891906112c0565b50565b6112bd91905b808211156112b95760008160009055506001016112a1565b5090565b90565b61130b91905b8082111561130757600080820160006101000a81549073ffffffffffffffffffffffffffffffffffffffff02191690556001820160009055506002016112c6565b5090565b905600a165627a7a723058209c144ad72b4095cd68fe6cfbcfdf7060a39a1ac9f0f5c12bfc742ce2749a81830029",
  "source": "pragma\tsolidity\t^0.4.19;\t\n\ncontract Lottery {\t\n    \n    struct Ticket{\n        address owner;\n        uint value;\n    }\n    \n    // current lottery number\n    uint    public  lotteryno;\n    \n    \n    // winner numbers that are updated by xoring the numbers given by the buyer at reveal stage\n\tuint    public  winnernumber1;\n\tuint    public  winnernumber2;\n\tuint    public  winnernumber3;\n\t\n\t// lottery mapping that map lotteryno to another mapping that maps ticket hash given at purchase stage to ticket value\n    mapping ( uint => mapping(bytes32 => uint) ) boughttickets;\n\n    \t// holds winners' addresses\n\tmapping (address => uint) winners;    \n    \n    // revealed ticket list\n\tTicket[] revealedtickets;\n\t\n\t// total number of revealed tickets for the lottery to be revealed next\n\tuint totalrevealed;\n\t\n\t// constant ticket prices\n\tuint\tconstant\tfullpay = 8 finney;\n\tuint\tconstant\thalfpay = 4 finney;\n\tuint\tconstant\tquarterpay = 2 finney;\n\t\n\t// purchase start, purchase end, reveal end times of lottery\n\tuint\tpublic\tstart; \n\tuint    public  buyend;\n\tuint\tpublic\trevealend;\n\t\n\t// current balances of lotteries\n\tuint[]  lotterybalance;\n\n\t\n\tfunction() public\t{\t\n\t\trevert();\t\n\t}\t\n\t\t\n\t//\tconstructor\t\t\n\tfunction Lottery() public\t{\t\n\t    lotteryno = 0;\n\t    lotterybalance.push(0);\n\t    \n\t\tstart\t=\tblock.number;\n\t\tbuyend =\tstart +  20000;\n\t\trevealend = buyend + 20000;\n\t}\n\t\n\t//buy full ticket\n\tfunction buyfullticket(bytes32 tickethash) public payable {\n\t    if(block.number < buyend){\n\t         if(msg.value == fullpay){\n\t             boughttickets[lotteryno][tickethash] = 8 finney;\n\t             lotterybalance[lotteryno] += 8 finney;\n\t         }else{\n\t             revert();\n\t         }\n\t    }else{\n\t        if(lotteryno != 0){\n\t            updatelottery();\n\t        }else{\n\t            start = buyend;\n\t            buyend += 20000;\n\t            lotteryno++;\n\t        }\n\t        buyfullticket(tickethash);\n\t    }\n\t}\n\t\n\t//buy half ticket\n\tfunction buyhalfticket(bytes32 tickethash) public payable {\n\t    if(block.number < buyend){\n\t         if(msg.value == halfpay){\n\t             boughttickets[lotteryno][tickethash] = 4 finney;\n\t             lotterybalance[lotteryno] += 4 finney;\n\t         }else{\n\t             revert();\n\t         }\n\t    }else{\n\t        if(lotteryno != 0){\n\t            updatelottery();\n\t        }else{\n\t            start = buyend;\n\t            buyend += 20000;\n\t            lotteryno++;\n\t        }\n\t        buyhalfticket(tickethash);\n\t    }\n\t}\n\t\n\t//buy quarter ticket\n\tfunction buyquarterticket(bytes32 tickethash) public payable {\n\t    if(block.number < buyend){\n\t         if(msg.value == quarterpay){\n\t             boughttickets[lotteryno][tickethash] = 2 finney;\n\t             lotterybalance[lotteryno] += 2 finney;\n\t         }else{\n\t             revert();\n\t         }\n\t    }else{\n\t        if(lotteryno != 0){\n\t            updatelottery();\n\t        }else{\n\t            start = buyend;\n\t            buyend += 20000;\n\t            lotterybalance.push(0);\n\t            lotteryno++;\n\t        }\n\t        buyquarterticket(tickethash);\n\t    }\n\t}\n\n\n\n   //reveal ticket\n   function revealticket(uint number1, uint number2, uint number3) public {\n        if( (lotteryno != 0 && block.number < revealend) ){\n\t         bytes32 hash = keccak256(number1,number2,number3,msg.sender);\n\t         \n\t         if(boughttickets[lotteryno-1][hash] != 0){\n\t             Ticket t;\n\t             if(boughttickets[lotteryno-1][hash] == 2 finney){\n\t                 t.owner = msg.sender;\n\t                 t.value = 2 finney;\n\t                 winnernumber3 ^= number3;\n\t             }else if(boughttickets[lotteryno-1][hash] == 4 finney){\n\t                 t.owner = msg.sender;\n\t                 t.value = 4 finney;\n\t                 winnernumber2 ^= number2;\n\t             }else{\n\t                 t.owner = msg.sender;\n\t                 t.value = 8 finney;\n\t                 winnernumber1 ^= number1;\n\t             }\n\t             \n\t             revealedtickets.push(t);\n\t             totalrevealed++;\n\t             \n\t             // make zero its hash to prevent duplicate reveal of a ticket\n\t             boughttickets[lotteryno-1][hash] = 0;\n\t             \n\t         }else{\n\t             revert();\n\t         }\n\t    }else{\n\t        if(lotteryno != 0){\n\t            updatelottery();\n\t        }else{\n\t            revert();\n\t        }\n\t    }\n   }\n   \n  \n  //get price if sender has balance greater than zero\n  function getprice() public payable {\n        \n     if(winners[msg.sender] != 0){\n         if\t(msg.sender.send(winners[msg.sender]))\t{\t\n\t\t\t winners[msg.sender] = 0;\t\n\t\t }\t\n     }else{\n         revert();\n     }\n\t  \n  }\n  \n  // get current balance of the contract\n   function getcontractbalance() constant public returns(uint retval) {\n       return address(this).balance;\n   }\n   \n   // updates lottery times after finding winners of the lottery\n   function updatelottery() private {\n       //i assumed there were at least 3 participants in each lottery at the end\n       winnernumber1 = winnernumber1 % totalrevealed;        \n       winnernumber2 = winnernumber2 % totalrevealed;        \n       winnernumber3 = winnernumber3 % totalrevealed;        \n       \n       //make sure that winner indexes are different\n       if(winnernumber1 == winnernumber2){\n           winnernumber2 = (winnernumber2 + 1) % totalrevealed;\n       }\n       if(winnernumber1 == winnernumber3){\n           winnernumber3 =  (winnernumber3 + 2) % totalrevealed;\n       }\n       if(winnernumber2 == winnernumber3){\n           winnernumber3 = (winnernumber3 + 1) % totalrevealed;\n       }\n       \n       uint prize1 = 0;\n       uint prize2 = 0;\n       uint prize3 = 0;\n       \n       if(revealedtickets[winnernumber1].value == 8 finney){\n           prize1 = lotterybalance[lotteryno-1]/2;\n       }else if(revealedtickets[winnernumber1].value == 4 finney){\n           prize1 = lotterybalance[lotteryno-1]/4;\n       }else{\n           prize1 = lotterybalance[lotteryno-1]/8;\n       }\n       \n       if(revealedtickets[winnernumber2].value == 8 finney){\n           prize2 = lotterybalance[lotteryno-1]/4;\n       }else if(revealedtickets[winnernumber2].value == 4 finney){\n           prize2 = lotterybalance[lotteryno-1]/8;\n       }else{\n           prize2 = lotterybalance[lotteryno-1]/16;\n       }\n       \n       if(revealedtickets[winnernumber3].value == 8 finney){\n           prize3 = lotterybalance[lotteryno-1]/8;\n       }else if(revealedtickets[winnernumber3].value == 4 finney){\n           prize3 = lotterybalance[lotteryno-1]/16;\n       }else{\n           prize3 = lotterybalance[lotteryno-1]/32;\n       }\n    \n       \n       // give the price first winner if there are many winners with the same number\n       winners[revealedtickets[winnernumber1].owner] += prize1;\n       winners[revealedtickets[winnernumber2].owner] += prize2;\n       winners[revealedtickets[winnernumber3].owner] += prize3;\n       \n       // update balance of the next lottery\n       uint leftovermoney = lotterybalance[lotteryno-1] - prize3 - prize2 - prize1;\n       lotterybalance[lotteryno] += leftovermoney;\n       \n       // delete revealed tickets to go next lottery reveal safe\n       delete revealedtickets;\n       delete totalrevealed;\n       \n       //update times\n       start = buyend;\n       buyend += 20000;\n       revealend += 20000;\n       \n       // push next lottery balance and update lottery number\n       lotterybalance.push(0);\n       lotteryno++;\n   }\n   \n   \n   \n   /*below methods are helpers when debug*/\n   function gethash(uint i,uint j,uint k) public view returns(bytes32 retval){\n       return keccak256(i,j,k,msg.sender);\n   }\n   \n   function setstart(uint val) public {\n       start = val;\n   }\n   \n   function setbuyend(uint val) public {\n       buyend = val;\n   }\n   \n   function setrevealend(uint val) public{\n       revealend = val;\n   }\n   \n\t\t\t\t\t\n}\t\n",
  "sourcePath": "/home/aykut/Desktop/DecentralizedLottery/contracts/Lottery.sol",
  "compiler": {
    "name": "solc",
    "version": "0.4.21+commit.dfe3193c.Emscripten.clang"
  },
  "schemaVersion": "2.0.0",
  "updatedAt": "2018-04-10T19:43:46.744Z"
}