{
  "contractName": "Lottery",
  "abi": [
    {
      "constant": true,
      "inputs": [],
      "name": "revealend",
      "outputs": [
        {
          "name": "",
          "type": "uint256"
        }
      ],
      "payable": false,
      "stateMutability": "view",
      "type": "function"
    },
    {
      "constant": true,
      "inputs": [],
      "name": "buyend",
      "outputs": [
        {
          "name": "",
          "type": "uint256"
        }
      ],
      "payable": false,
      "stateMutability": "view",
      "type": "function"
    },
    {
      "constant": true,
      "inputs": [],
      "name": "winnernumber1",
      "outputs": [
        {
          "name": "",
          "type": "uint256"
        }
      ],
      "payable": false,
      "stateMutability": "view",
      "type": "function"
    },
    {
      "constant": true,
      "inputs": [],
      "name": "winnernumber3",
      "outputs": [
        {
          "name": "",
          "type": "uint256"
        }
      ],
      "payable": false,
      "stateMutability": "view",
      "type": "function"
    },
    {
      "constant": true,
      "inputs": [],
      "name": "start",
      "outputs": [
        {
          "name": "",
          "type": "uint256"
        }
      ],
      "payable": false,
      "stateMutability": "view",
      "type": "function"
    },
    {
      "constant": true,
      "inputs": [],
      "name": "winnernumber2",
      "outputs": [
        {
          "name": "",
          "type": "uint256"
        }
      ],
      "payable": false,
      "stateMutability": "view",
      "type": "function"
    },
    {
      "inputs": [],
      "payable": false,
      "stateMutability": "nonpayable",
      "type": "constructor"
    },
    {
      "constant": false,
      "inputs": [
        {
          "name": "tickethash",
          "type": "bytes32"
        }
      ],
      "name": "buyfullticket",
      "outputs": [],
      "payable": true,
      "stateMutability": "payable",
      "type": "function"
    },
    {
      "constant": false,
      "inputs": [
        {
          "name": "tickethash",
          "type": "bytes32"
        }
      ],
      "name": "buyhalfticket",
      "outputs": [],
      "payable": true,
      "stateMutability": "payable",
      "type": "function"
    },
    {
      "constant": false,
      "inputs": [
        {
          "name": "tickethash",
          "type": "bytes32"
        }
      ],
      "name": "buyquarterticket",
      "outputs": [],
      "payable": true,
      "stateMutability": "payable",
      "type": "function"
    },
    {
      "constant": false,
      "inputs": [
        {
          "name": "number1",
          "type": "uint256"
        },
        {
          "name": "number2",
          "type": "uint256"
        },
        {
          "name": "number3",
          "type": "uint256"
        }
      ],
      "name": "revealticket",
      "outputs": [
        {
          "name": "",
          "type": "bool"
        }
      ],
      "payable": false,
      "stateMutability": "nonpayable",
      "type": "function"
    },
    {
      "constant": false,
      "inputs": [],
      "name": "getprice",
      "outputs": [],
      "payable": true,
      "stateMutability": "payable",
      "type": "function"
    },
    {
      "constant": true,
      "inputs": [
        {
          "name": "i",
          "type": "uint256"
        },
        {
          "name": "j",
          "type": "uint256"
        },
        {
          "name": "k",
          "type": "uint256"
        }
      ],
      "name": "gethash",
      "outputs": [
        {
          "name": "retval",
          "type": "bytes32"
        }
      ],
      "payable": false,
      "stateMutability": "view",
      "type": "function"
    },
    {
      "constant": true,
      "inputs": [],
      "name": "getBlockNo",
      "outputs": [
        {
          "name": "",
          "type": "uint256"
        }
      ],
      "payable": false,
      "stateMutability": "view",
      "type": "function"
    },
    {
      "constant": true,
      "inputs": [],
      "name": "getcontractbalance",
      "outputs": [
        {
          "name": "retval",
          "type": "uint256"
        }
      ],
      "payable": false,
      "stateMutability": "view",
      "type": "function"
    }
  ],
  "bytecode": "0x6060604052341561000f57600080fd5b436007819055506032600754016008819055506032600854016009819055506113d18061003d6000396000f3006060604052600436106100d0576000357c0100000000000000000000000000000000000000000000000000000000900463ffffffff1680630fcb5984146100d5578063175a5afe146100df578063355822fd146100fb578063474d6e0f1461014c57806348fc57f2146101995780634e5077f2146101c2578063594aea58146101eb5780639a55889114610214578063b277fbf91461023d578063be9a655514610259578063d10d7eb614610282578063d49499741461029e578063f28bf146146102c7578063fba0e4bb146102f0575b600080fd5b6100dd610319565b005b6100f96004808035600019169060200190919050506103f9565b005b341561010657600080fd5b61012e6004808035906020019091908035906020019091908035906020019091905050610585565b60405180826000191660001916815260200191505060405180910390f35b341561015757600080fd5b61017f60048080359060200190919080359060200190919080359060200190919050506105f9565b604051808215151515815260200191505060405180910390f35b34156101a457600080fd5b6101ac610a8a565b6040518082815260200191505060405180910390f35b34156101cd57600080fd5b6101d5610a90565b6040518082815260200191505060405180910390f35b34156101f657600080fd5b6101fe610a96565b6040518082815260200191505060405180910390f35b341561021f57600080fd5b610227610a9c565b6040518082815260200191505060405180910390f35b610257600480803560001916906020019091905050610aa2565b005b341561026457600080fd5b61026c610c2e565b6040518082815260200191505060405180910390f35b61029c600480803560001916906020019091905050610c34565b005b34156102a957600080fd5b6102b1610dc0565b6040518082815260200191505060405180910390f35b34156102d257600080fd5b6102da610dc6565b6040518082815260200191505060405180910390f35b34156102fb57600080fd5b610303610de5565b6040518082815260200191505060405180910390f35b6000600460003373ffffffffffffffffffffffffffffffffffffffff1673ffffffffffffffffffffffffffffffffffffffff1681526020019081526020016000205490506000811415156103f1573373ffffffffffffffffffffffffffffffffffffffff166108fc829081150290604051600060405180830381858888f1935050505015156103a757600080fd5b6000600460003373ffffffffffffffffffffffffffffffffffffffff1673ffffffffffffffffffffffffffffffffffffffff168152602001908152602001600020819055506103f6565b600080fd5b50565b600061040361128c565b4391506007548210158015610419575060085482105b1561057b5766071afd498d00003414156105715733816000019073ffffffffffffffffffffffffffffffffffffffff16908173ffffffffffffffffffffffffffffffffffffffff168152505066071afd498d00008160200181815250508281604001906000191690816000191681525050600360003373ffffffffffffffffffffffffffffffffffffffff1673ffffffffffffffffffffffffffffffffffffffff16815260200190815260200160002080548060010182816104db91906112c7565b9160005260206000209060030201600083909190915060008201518160000160006101000a81548173ffffffffffffffffffffffffffffffffffffffff021916908373ffffffffffffffffffffffffffffffffffffffff160217905550602082015181600101556040820151816002019060001916905550505066071afd498d0000600a60008282540192505081905550610576565b600080fd5b610580565b600080fd5b505050565b600083838333604051808581526020018481526020018381526020018273ffffffffffffffffffffffffffffffffffffffff1673ffffffffffffffffffffffffffffffffffffffff166c01000000000000000000000000028152601401945050505050604051809103902090509392505050565b6000806000806000804394506008548510158015610618575060095485105b15610a625788888833604051808581526020018481526020018381526020018273ffffffffffffffffffffffffffffffffffffffff1673ffffffffffffffffffffffffffffffffffffffff166c0100000000000000000000000002815260140194505050505060405180910390209350600360003373ffffffffffffffffffffffffffffffffffffffff1673ffffffffffffffffffffffffffffffffffffffff168152602001908152602001600020805490509250600083141515610a595760009150600090505b82811015610a41578360001916600360003373ffffffffffffffffffffffffffffffffffffffff1673ffffffffffffffffffffffffffffffffffffffff1681526020019081526020016000208281548110151561073957fe5b906000526020600020906003020160020154600019161415610a34576005805480600101828161076991906112c7565b91600052602060002090600302016000600360003373ffffffffffffffffffffffffffffffffffffffff1673ffffffffffffffffffffffffffffffffffffffff168152602001908152602001600020848154811015156107c557fe5b906000526020600020906003020190919091506000820160009054906101000a900473ffffffffffffffffffffffffffffffffffffffff168160000160006101000a81548173ffffffffffffffffffffffffffffffffffffffff021916908373ffffffffffffffffffffffffffffffffffffffff1602179055506001820154816001015560028201548160020190600019169055505050600660008154809291906001019190505550600360003373ffffffffffffffffffffffffffffffffffffffff1673ffffffffffffffffffffffffffffffffffffffff168152602001908152602001600020600184038154811015156108bd57fe5b9060005260206000209060030201600360003373ffffffffffffffffffffffffffffffffffffffff1673ffffffffffffffffffffffffffffffffffffffff1681526020019081526020016000208281548110151561091757fe5b90600052602060002090600302016000820160009054906101000a900473ffffffffffffffffffffffffffffffffffffffff168160000160006101000a81548173ffffffffffffffffffffffffffffffffffffffff021916908373ffffffffffffffffffffffffffffffffffffffff1602179055506001820154816001015560028201548160020190600019169055905050600360003373ffffffffffffffffffffffffffffffffffffffff1673ffffffffffffffffffffffffffffffffffffffff1681526020019081526020016000208054809190600190036109fb91906112f9565b50866002600082825418925050819055508760016000828254189250508190555088600080828254189250508190555060019150610a41565b80806001019150506106e0565b8115610a505760019550610a7e565b60009550610a7e565b60009550610a7e565b600854851015610a7157600080fd5b610a79610ded565b600095505b50505050509392505050565b60095481565b60085481565b60005481565b60025481565b6000610aac61128c565b4391506007548210158015610ac2575060085482105b15610c2457660e35fa931a0000341415610c1a5733816000019073ffffffffffffffffffffffffffffffffffffffff16908173ffffffffffffffffffffffffffffffffffffffff1681525050660e35fa931a00008160200181815250508281604001906000191690816000191681525050600360003373ffffffffffffffffffffffffffffffffffffffff1673ffffffffffffffffffffffffffffffffffffffff1681526020019081526020016000208054806001018281610b8491906112c7565b9160005260206000209060030201600083909190915060008201518160000160006101000a81548173ffffffffffffffffffffffffffffffffffffffff021916908373ffffffffffffffffffffffffffffffffffffffff1602179055506020820151816001015560408201518160020190600019169055505050660e35fa931a0000600a60008282540192505081905550610c1f565b600080fd5b610c29565b600080fd5b505050565b60075481565b6000610c3e61128c565b4391506007548210158015610c54575060085482105b15610db657661c6bf526340000341415610dac5733816000019073ffffffffffffffffffffffffffffffffffffffff16908173ffffffffffffffffffffffffffffffffffffffff1681525050661c6bf5263400008160200181815250508281604001906000191690816000191681525050600360003373ffffffffffffffffffffffffffffffffffffffff1673ffffffffffffffffffffffffffffffffffffffff1681526020019081526020016000208054806001018281610d1691906112c7565b9160005260206000209060030201600083909190915060008201518160000160006101000a81548173ffffffffffffffffffffffffffffffffffffffff021916908373ffffffffffffffffffffffffffffffffffffffff1602179055506020820151816001015560408201518160020190600019169055505050661c6bf526340000600a60008282540192505081905550610db1565b600080fd5b610dbb565b600080fd5b505050565b60015481565b60003073ffffffffffffffffffffffffffffffffffffffff1631905090565b600043905090565b600080600080600654600054811515610e0257fe5b06600081905550600654600154811515610e1857fe5b06600181905550600654600254811515610e2e57fe5b066002819055506001546000541415610e5a576006546001805401811515610e5257fe5b066001819055505b6002546000541415610e7f576006546002805401811515610e7757fe5b066002819055505b6002546001541415610ea557600654600160025401811515610e9d57fe5b066002819055505b600093506000925060009150661c6bf5263400006005600054815481101515610eca57fe5b9060005260206000209060030201600101541415610ef8576002600a54811515610ef057fe5b049350610f52565b660e35fa931a00006005600054815481101515610f1157fe5b9060005260206000209060030201600101541415610f3f576004600a54811515610f3757fe5b049350610f51565b6008600a54811515610f4d57fe5b0493505b5b661c6bf5263400006005600154815481101515610f6b57fe5b9060005260206000209060030201600101541415610f99576004600a54811515610f9157fe5b049250610ff3565b660e35fa931a00006005600154815481101515610fb257fe5b9060005260206000209060030201600101541415610fe0576008600a54811515610fd857fe5b049250610ff2565b6010600a54811515610fee57fe5b0492505b5b661c6bf526340000600560025481548110151561100c57fe5b906000526020600020906003020160010154141561103a576008600a5481151561103257fe5b049150611094565b660e35fa931a0000600560025481548110151561105357fe5b9060005260206000209060030201600101541415611081576010600a5481151561107957fe5b049150611093565b6020600a5481151561108f57fe5b0491505b5b836004600060056000548154811015156110aa57fe5b906000526020600020906003020160000160009054906101000a900473ffffffffffffffffffffffffffffffffffffffff1673ffffffffffffffffffffffffffffffffffffffff1673ffffffffffffffffffffffffffffffffffffffff168152602001908152602001600020600082825401925050819055508260046000600560015481548110151561113957fe5b906000526020600020906003020160000160009054906101000a900473ffffffffffffffffffffffffffffffffffffffff1673ffffffffffffffffffffffffffffffffffffffff1673ffffffffffffffffffffffffffffffffffffffff16815260200190815260200160002060008282540192505081905550816004600060056002548154811015156111c857fe5b906000526020600020906003020160000160009054906101000a900473ffffffffffffffffffffffffffffffffffffffff1673ffffffffffffffffffffffffffffffffffffffff1673ffffffffffffffffffffffffffffffffffffffff16815260200190815260200160002060008282540192505081905550838383600a54030303905080600a8190555060056000611261919061132b565b6006600090554360078190555060326007540160088190555060326008540160098190555050505050565b606060405190810160405280600073ffffffffffffffffffffffffffffffffffffffff16815260200160008152602001600080191681525090565b8154818355818115116112f4576003028160030283600052602060002091820191016112f3919061134f565b5b505050565b81548183558181151161132657600302816003028360005260206000209182019101611325919061134f565b5b505050565b508054600082556003029060005260206000209081019061134c919061134f565b50565b6113a291905b8082111561139e57600080820160006101000a81549073ffffffffffffffffffffffffffffffffffffffff02191690556001820160009055600282016000905550600301611355565b5090565b905600a165627a7a723058202ba83c09c9af81d883345a84795a78acdc74de3e40ccaa4bbe786d12d13312380029",
  "source": "pragma\tsolidity\t^0.4.19;\t\n\ncontract\tLottery\t{\t\n    \n    struct Ticket{\n        address owner;\n        uint256 value;\n        bytes32 hashVal;\n    }\n    \n    // constant ticket prices\n\tuint\tconstant\tfullpay = 8 finney;\n\tuint\tconstant\thalfpay = 4 finney;\n\tuint\tconstant\tquarterpay = 2 finney;\n\n    //constant blockperiod of a stage\n\tuint\tconstant\tblockperiod = 50;\n    \n    // winner numbers that are updated by xoring the numbers given by the buyer at reveal stage\n\tuint    public  winnernumber1;\n\tuint    public  winnernumber2;\n\tuint    public  winnernumber3;\n\t\n    \n    // mapping that maps address to tickets purchased by that address\n    mapping ( address => Ticket[] ) boughttickets;\n\n    \t// holds winners' addresses\n\tmapping (address => uint) winners;    \n    \n    // revealed ticket list\n\tTicket[] revealedtickets;\n\t\n\t// total number of revealed tickets for the lottery to be revealed next\n\tuint totalrevealed;\n\t\n\t\n\t// purchase start, purchase end, reveal end times of the lottery\n\tuint\tpublic\tstart; \n\tuint    public  buyend;\n\tuint\tpublic\trevealend;\n\t\n\t// current balance of the lottery\n\tuint  lotterybalance;\n\t\t\n\t//\tconstructor\t\t\n\tfunction Lottery() public\t{\t\n\t\tstart\t=\tblock.number;\n\t\tbuyend =\tstart +  blockperiod;\n\t\trevealend = buyend + blockperiod;\n\t}\n\t\n\t//buy full ticket\n\tfunction buyfullticket(bytes32 tickethash) public payable {\n\t    uint currentblockno = block.number;\n\t    if( currentblockno >= start && currentblockno < buyend){\n\t         if(msg.value == fullpay){\n\t             Ticket memory t;\n\t             t.owner = msg.sender;\n\t             t.value = 8 finney;\n\t             t.hashVal = tickethash;\n\t             boughttickets[msg.sender].push(t);\n\t             lotterybalance += 8 finney;\n\t         }else{\n\t             // not 8 finney\n\t             revert();\n\t         }\n\t    }else{\n\t        \n\t        // it is reveal stage\n\t        revert();\n\t         \n\t    }\n\t}\n\t\n\t//buy half ticket\n\tfunction buyhalfticket(bytes32 tickethash) public payable {\n\t    uint currentblockno = block.number;\n\t    if( currentblockno >= start && currentblockno < buyend){\n\t         if(msg.value == halfpay){\n\t             Ticket memory t;\n\t             t.owner = msg.sender;\n\t             t.value = 4 finney;\n\t             t.hashVal = tickethash;\n\t             boughttickets[msg.sender].push(t);\n\t             lotterybalance += 4 finney;\n\t         }else{\n\t             // not 4 finney\n\t             revert();\n\t         }\n\t    }else{\n\t        \n\t        // it is not purchase stage\n\t        revert();\n\t        \n\t    }\n\t}\n\t\n\t//buy quarter ticket\n\tfunction buyquarterticket(bytes32 tickethash) public payable {\n\t    uint currentblockno = block.number;\n\t    if( currentblockno >= start && currentblockno < buyend){\n\t         if(msg.value == quarterpay){\n\t             Ticket memory t;\n\t             t.owner = msg.sender;\n\t             t.value = 2 finney;\n\t             t.hashVal = tickethash;\n\t             boughttickets[msg.sender].push(t);\n\t             lotterybalance += 2 finney;\n\t         }else{\n\t             // not 2 finney\n\t             revert();\n\t         }\n\t    }else{\n\t       \n\t         // it is reveal stage\n\t         revert();\n\t         \n\t    }\n\t}\n\n\n\n   //reveal ticket\n   function revealticket(uint number1, uint number2, uint number3) public returns(bool) {\n        uint currentblockno = block.number;\n        if( currentblockno >= buyend && currentblockno < revealend ){\n\t         bytes32 hash = keccak256(number1,number2,number3,msg.sender);\n\t         uint totalticketsnotyetrevealed = boughttickets[msg.sender].length;\n\t         if(totalticketsnotyetrevealed != 0){\n\t                \n\t             bool found = false;\n\t             for(uint i=0;i<totalticketsnotyetrevealed;i++){\n\t                 if(boughttickets[msg.sender][i].hashVal == hash){\n\t                     \n\t                    revealedtickets.push(boughttickets[msg.sender][i]);\n\t                    totalrevealed++;\n\t                    \n\t                    // delete revealed ticket from bought tickets to prevent double reveal try of the same ticket\n\t                    boughttickets[msg.sender][i] = boughttickets[msg.sender][totalticketsnotyetrevealed-1];\n\t                    boughttickets[msg.sender].length--;\n\t                          \n\t                    winnernumber3 ^= number3;\n                            winnernumber2 ^= number2;\n\t                    winnernumber1 ^= number1;\n\t                    found = true;\n\t                    break;\n\t                 }\n\t             }\n\t             \n\t             if(found){\n\t                 // user revealed a ticket\n\t                 return true;\n\t             }else{\n\t                 // wrong hash\n\t                 return false;\n\t             }\n\t         }else{\n\t             // user had no purchased ticket\n\t             return false;\n\t         }\n\t    }else if(currentblockno < buyend ){\n\t        \n\t        // it is buy stage\n\t        revert();\n\t        \n\t    }else{\n\t        // reveal time has ended\n\t        updatelottery();\n\t        return false;\n\t    }\n\t    \n   }\n   \n  \n  //get price if sender has balance greater than zero\n  function getprice() public payable {\n     uint amount = winners[msg.sender];\n     if(amount != 0){\n         if\t(!msg.sender.send(amount))\t{\t\n\t\t\t \trevert();\n\t\t }else{\n\t\t     winners[msg.sender] = 0;\n\t\t }\n     }else{\n         revert();\n     }\n\t  \n  }\n  \n\n   // updates lottery times after finding winners of the lottery\n   function updatelottery() private {\n       // calculate winner indexes so that array does not go out of bounds\n       winnernumber1 = winnernumber1 % totalrevealed;        \n       winnernumber2 = winnernumber2 % totalrevealed;        \n       winnernumber3 = winnernumber3 % totalrevealed;        \n       \n       //make sure that winner indexes are different\n       if(winnernumber1 == winnernumber2){\n           winnernumber2 = (winnernumber2 + 1) % totalrevealed;\n       }\n       if(winnernumber1 == winnernumber3){\n           winnernumber3 =  (winnernumber3 + 2) % totalrevealed;\n       }\n       if(winnernumber2 == winnernumber3){\n           winnernumber3 = (winnernumber3 + 1) % totalrevealed;\n       }\n       \n       uint prize1 = 0;\n       uint prize2 = 0;\n       uint prize3 = 0;\n       \n       if(revealedtickets[winnernumber1].value == 8 finney){\n           prize1 = lotterybalance/2;\n       }else if(revealedtickets[winnernumber1].value == 4 finney){\n           prize1 = lotterybalance/4;\n       }else{\n           prize1 = lotterybalance/8;\n       }\n       \n       if(revealedtickets[winnernumber2].value == 8 finney){\n           prize2 = lotterybalance/4;\n       }else if(revealedtickets[winnernumber2].value == 4 finney){\n           prize2 = lotterybalance/8;\n       }else{\n           prize2 = lotterybalance/16;\n       }\n       \n       if(revealedtickets[winnernumber3].value == 8 finney){\n           prize3 = lotterybalance/8;\n       }else if(revealedtickets[winnernumber3].value == 4 finney){\n           prize3 = lotterybalance/16;\n       }else{\n           prize3 = lotterybalance/32;\n       }\n    \n       \n       // give the price first winner if there are many winners with the same number\n       winners[revealedtickets[winnernumber1].owner] += prize1;\n       winners[revealedtickets[winnernumber2].owner] += prize2;\n       winners[revealedtickets[winnernumber3].owner] += prize3;\n       \n       // update balance of the next lottery\n       uint leftovermoney = lotterybalance - prize3 - prize2 - prize1;\n       lotterybalance = leftovermoney;\n       \n       // delete revealed tickets and bought tickets to go next lottery reveal safe\n       delete revealedtickets;\n       delete totalrevealed;\n       \n       //update times\n       start = block.number;\n       buyend = start +  blockperiod;\n       revealend = buyend + blockperiod;\n       \n       \n   }\n   \n   \n   \n   /*below methods are helpers when debug*/\n   function gethash(uint i,uint j,uint k) public view returns(bytes32 retval){\n       return keccak256(i,j,k,msg.sender);\n   }\n   \n   function getBlockNo() public view returns(uint){\n       return block.number;\n   }\n   \n   function getcontractbalance() constant public returns(uint retval) {\n       return address(this).balance;\n   }\n   \n   \n\t\t\t\t\t\n}\t\n\n",
  "sourcePath": "/home/aykut/Desktop/DecentralizedLottery/contracts/Lottery.sol",
  "compiler": {
    "name": "solc",
    "version": "0.4.21+commit.dfe3193c.Emscripten.clang"
  },
  "schemaVersion": "2.0.0",
  "updatedAt": "2018-04-16T13:08:00.385Z"
}