{
  "contractName": "Lottery",
  "abi": [
    {
      "constant": true,
      "inputs": [],
      "name": "revealend",
      "outputs": [
        {
          "name": "",
          "type": "uint256"
        }
      ],
      "payable": false,
      "stateMutability": "view",
      "type": "function"
    },
    {
      "constant": true,
      "inputs": [],
      "name": "buyend",
      "outputs": [
        {
          "name": "",
          "type": "uint256"
        }
      ],
      "payable": false,
      "stateMutability": "view",
      "type": "function"
    },
    {
      "constant": true,
      "inputs": [],
      "name": "winnernumber1",
      "outputs": [
        {
          "name": "",
          "type": "uint256"
        }
      ],
      "payable": false,
      "stateMutability": "view",
      "type": "function"
    },
    {
      "constant": true,
      "inputs": [],
      "name": "winnernumber3",
      "outputs": [
        {
          "name": "",
          "type": "uint256"
        }
      ],
      "payable": false,
      "stateMutability": "view",
      "type": "function"
    },
    {
      "constant": true,
      "inputs": [],
      "name": "start",
      "outputs": [
        {
          "name": "",
          "type": "uint256"
        }
      ],
      "payable": false,
      "stateMutability": "view",
      "type": "function"
    },
    {
      "constant": true,
      "inputs": [],
      "name": "lotteryno",
      "outputs": [
        {
          "name": "",
          "type": "uint256"
        }
      ],
      "payable": false,
      "stateMutability": "view",
      "type": "function"
    },
    {
      "constant": true,
      "inputs": [],
      "name": "winnernumber2",
      "outputs": [
        {
          "name": "",
          "type": "uint256"
        }
      ],
      "payable": false,
      "stateMutability": "view",
      "type": "function"
    },
    {
      "inputs": [],
      "payable": false,
      "stateMutability": "nonpayable",
      "type": "constructor"
    },
    {
      "payable": false,
      "stateMutability": "nonpayable",
      "type": "fallback"
    },
    {
      "constant": false,
      "inputs": [
        {
          "name": "tickethash",
          "type": "bytes32"
        }
      ],
      "name": "buyfullticket",
      "outputs": [],
      "payable": true,
      "stateMutability": "payable",
      "type": "function"
    },
    {
      "constant": false,
      "inputs": [
        {
          "name": "tickethash",
          "type": "bytes32"
        }
      ],
      "name": "buyhalfticket",
      "outputs": [],
      "payable": true,
      "stateMutability": "payable",
      "type": "function"
    },
    {
      "constant": false,
      "inputs": [
        {
          "name": "tickethash",
          "type": "bytes32"
        }
      ],
      "name": "buyquarterticket",
      "outputs": [],
      "payable": true,
      "stateMutability": "payable",
      "type": "function"
    },
    {
      "constant": false,
      "inputs": [
        {
          "name": "number1",
          "type": "uint256"
        },
        {
          "name": "number2",
          "type": "uint256"
        },
        {
          "name": "number3",
          "type": "uint256"
        }
      ],
      "name": "revealticket",
      "outputs": [
        {
          "name": "",
          "type": "bool"
        }
      ],
      "payable": false,
      "stateMutability": "nonpayable",
      "type": "function"
    },
    {
      "constant": false,
      "inputs": [],
      "name": "getprice",
      "outputs": [],
      "payable": true,
      "stateMutability": "payable",
      "type": "function"
    },
    {
      "constant": true,
      "inputs": [],
      "name": "getcontractbalance",
      "outputs": [
        {
          "name": "retval",
          "type": "uint256"
        }
      ],
      "payable": false,
      "stateMutability": "view",
      "type": "function"
    },
    {
      "constant": true,
      "inputs": [
        {
          "name": "i",
          "type": "uint256"
        },
        {
          "name": "j",
          "type": "uint256"
        },
        {
          "name": "k",
          "type": "uint256"
        }
      ],
      "name": "gethash",
      "outputs": [
        {
          "name": "retval",
          "type": "bytes32"
        }
      ],
      "payable": false,
      "stateMutability": "view",
      "type": "function"
    },
    {
      "constant": false,
      "inputs": [
        {
          "name": "val",
          "type": "uint256"
        }
      ],
      "name": "setstart",
      "outputs": [],
      "payable": false,
      "stateMutability": "nonpayable",
      "type": "function"
    },
    {
      "constant": false,
      "inputs": [
        {
          "name": "val",
          "type": "uint256"
        }
      ],
      "name": "setbuyend",
      "outputs": [],
      "payable": false,
      "stateMutability": "nonpayable",
      "type": "function"
    },
    {
      "constant": false,
      "inputs": [
        {
          "name": "val",
          "type": "uint256"
        }
      ],
      "name": "setrevealend",
      "outputs": [],
      "payable": false,
      "stateMutability": "nonpayable",
      "type": "function"
    },
    {
      "constant": false,
      "inputs": [
        {
          "name": "val",
          "type": "uint256"
        }
      ],
      "name": "setlottery",
      "outputs": [],
      "payable": false,
      "stateMutability": "nonpayable",
      "type": "function"
    }
  ],
  "bytecode": "0x606060405234156200001057600080fd5b60008081905550600b80548060010182816200002d919062000069565b91600052602060002090016000809091909150555043600881905550614e2060085401600981905550614e2060095401600a81905550620000c0565b815481835581811511620000935781836000526020600020918201910162000092919062000098565b5b505050565b620000bd91905b80821115620000b95760008160009055506001016200009f565b5090565b90565b61186180620000d06000396000f3006060604052600436106100fc576000357c0100000000000000000000000000000000000000000000000000000000900463ffffffff1680630fcb59841461010c578063175a5afe14610116578063355822fd14610132578063474d6e0f1461018357806348fc57f2146101d05780634e5077f2146101f9578063594aea58146102225780639971f7211461024b5780639a5588911461026e5780639c2aa0f814610297578063b277fbf9146102ba578063b2860396146102d6578063be9a6555146102f9578063cfe0361914610322578063d10d7eb61461034b578063d494997414610367578063d9cb445914610390578063f28bf146146103b3575b341561010757600080fd5b600080fd5b6101146103dc565b005b6101306004808035600019169060200190919050506104f0565b005b341561013d57600080fd5b6101656004808035906020019091908035906020019091908035906020019091905050610727565b60405180826000191660001916815260200191505060405180910390f35b341561018e57600080fd5b6101b6600480803590602001909190803590602001909190803590602001909190505061079b565b604051808215151515815260200191505060405180910390f35b34156101db57600080fd5b6101e3610c25565b6040518082815260200191505060405180910390f35b341561020457600080fd5b61020c610c2b565b6040518082815260200191505060405180910390f35b341561022d57600080fd5b610235610c31565b6040518082815260200191505060405180910390f35b341561025657600080fd5b61026c6004808035906020019091905050610c37565b005b341561027957600080fd5b610281610c41565b6040518082815260200191505060405180910390f35b34156102a257600080fd5b6102b86004808035906020019091905050610c47565b005b6102d4600480803560001916906020019091905050610c51565b005b34156102e157600080fd5b6102f76004808035906020019091905050610e5f565b005b341561030457600080fd5b61030c610e69565b6040518082815260200191505060405180910390f35b341561032d57600080fd5b610335610e6f565b6040518082815260200191505060405180910390f35b610365600480803560001916906020019091905050610e75565b005b341561037257600080fd5b61037a611083565b6040518082815260200191505060405180910390f35b341561039b57600080fd5b6103b16004808035906020019091905050611089565b005b34156103be57600080fd5b6103c6611093565b6040518082815260200191505060405180910390f35b6000600560003373ffffffffffffffffffffffffffffffffffffffff1673ffffffffffffffffffffffffffffffffffffffff168152602001908152602001600020541415156104e9573373ffffffffffffffffffffffffffffffffffffffff166108fc600560003373ffffffffffffffffffffffffffffffffffffffff1673ffffffffffffffffffffffffffffffffffffffff168152602001908152602001600020549081150290604051600060405180830381858888f19350505050156104e4576000600560003373ffffffffffffffffffffffffffffffffffffffff1673ffffffffffffffffffffffffffffffffffffffff168152602001908152602001600020819055505b6104ee565b600080fd5b565b6104f86116e0565b6009544310156106ab5766071afd498d00003414156106a15733816000019073ffffffffffffffffffffffffffffffffffffffff16908173ffffffffffffffffffffffffffffffffffffffff168152505066071afd498d00008160200181815250508181604001906000191690816000191681525050600460008054815260200190815260200160002060003373ffffffffffffffffffffffffffffffffffffffff1673ffffffffffffffffffffffffffffffffffffffff16815260200190815260200160002080548060010182816105d19190611724565b9160005260206000209060040201600083909190915060008201518160000160006101000a81548173ffffffffffffffffffffffffffffffffffffffff021916908373ffffffffffffffffffffffffffffffffffffffff160217905550602082015181600101556040820151816002019060001916905560608201518160030160006101000a81548160ff02191690831515021790555050505066071afd498d0000600b60005481548110151561068457fe5b9060005260206000209001600082825401925050819055506106a6565b600080fd5b610723565b600080541415156106c3576106be6110b2565b610719565b600954600881905550614e20600960008282540192505081905550600b80548060010182816106f29190611756565b91600052602060002090016000809091909150555060008081548092919060010191905055505b610722826104f0565b5b5050565b600083838333604051808581526020018481526020018381526020018273ffffffffffffffffffffffffffffffffffffffff1673ffffffffffffffffffffffffffffffffffffffff166c01000000000000000000000000028152601401945050505050604051809103902090509392505050565b600080600080600080600054141580156107b65750600a5443105b15610bf95787878733604051808581526020018481526020018381526020018273ffffffffffffffffffffffffffffffffffffffff1673ffffffffffffffffffffffffffffffffffffffff166c010000000000000000000000000281526014019450505050506040518091039020935060046000600160005403815260200190815260200160002060003373ffffffffffffffffffffffffffffffffffffffff1673ffffffffffffffffffffffffffffffffffffffff168152602001908152602001600020805490509250600083141515610bf45760009150600090505b82811015610be057836000191660046000600160005403815260200190815260200160002060003373ffffffffffffffffffffffffffffffffffffffff1673ffffffffffffffffffffffffffffffffffffffff1681526020019081526020016000208281548110151561090357fe5b906000526020600020906004020160020154600019161480156109aa57506000151560046000600160005403815260200190815260200160002060003373ffffffffffffffffffffffffffffffffffffffff1673ffffffffffffffffffffffffffffffffffffffff1681526020019081526020016000208281548110151561098757fe5b906000526020600020906004020160030160009054906101000a900460ff161515145b15610bd357600680548060010182816109c39190611724565b9160005260206000209060040201600060046000600160005403815260200190815260200160002060003373ffffffffffffffffffffffffffffffffffffffff1673ffffffffffffffffffffffffffffffffffffffff16815260200190815260200160002060018703815481101515610a3857fe5b906000526020600020906004020190919091506000820160009054906101000a900473ffffffffffffffffffffffffffffffffffffffff168160000160006101000a81548173ffffffffffffffffffffffffffffffffffffffff021916908373ffffffffffffffffffffffffffffffffffffffff16021790555060018201548160010155600282015481600201906000191690556003820160009054906101000a900460ff168160030160006101000a81548160ff021916908315150217905550505050600760008154809291906001019190505550600160046000600160005403815260200190815260200160002060003373ffffffffffffffffffffffffffffffffffffffff1673ffffffffffffffffffffffffffffffffffffffff16815260200190815260200160002082815481101515610b7257fe5b906000526020600020906004020160030160006101000a81548160ff02191690831515021790555060019150856003600082825418925050819055508660026000828254189250508190555087600160008282541892505081905550610be0565b8080600101915050610894565b8115610bef5760019450610c1a565b600080fd5b600080fd5b60008054141515610c1557610c0c6110b2565b60009450610c1a565b600080fd5b505050509392505050565b600a5481565b60095481565b60015481565b8060008190555050565b60035481565b8060098190555050565b610c596116e0565b600954431015610e0c57660e35fa931a0000341415610e025733816000019073ffffffffffffffffffffffffffffffffffffffff16908173ffffffffffffffffffffffffffffffffffffffff1681525050660e35fa931a00008160200181815250508181604001906000191690816000191681525050600460008054815260200190815260200160002060003373ffffffffffffffffffffffffffffffffffffffff1673ffffffffffffffffffffffffffffffffffffffff1681526020019081526020016000208054806001018281610d329190611724565b9160005260206000209060040201600083909190915060008201518160000160006101000a81548173ffffffffffffffffffffffffffffffffffffffff021916908373ffffffffffffffffffffffffffffffffffffffff160217905550602082015181600101556040820151816002019060001916905560608201518160030160006101000a81548160ff021916908315150217905550505050660e35fa931a0000600b600054815481101515610de557fe5b906000526020600020900160008282540192505081905550610e07565b600080fd5b610e5b565b60008054141515610e2457610e1f6110b2565b610e51565b600954600881905550614e2060096000828254019250508190555060008081548092919060010191905055505b610e5a82610c51565b5b5050565b8060088190555050565b60085481565b60005481565b610e7d6116e0565b60095443101561103057661c6bf5263400003414156110265733816000019073ffffffffffffffffffffffffffffffffffffffff16908173ffffffffffffffffffffffffffffffffffffffff1681525050661c6bf5263400008160200181815250508181604001906000191690816000191681525050600460008054815260200190815260200160002060003373ffffffffffffffffffffffffffffffffffffffff1673ffffffffffffffffffffffffffffffffffffffff1681526020019081526020016000208054806001018281610f569190611724565b9160005260206000209060040201600083909190915060008201518160000160006101000a81548173ffffffffffffffffffffffffffffffffffffffff021916908373ffffffffffffffffffffffffffffffffffffffff160217905550602082015181600101556040820151816002019060001916905560608201518160030160006101000a81548160ff021916908315150217905550505050661c6bf526340000600b60005481548110151561100957fe5b90600052602060002090016000828254019250508190555061102b565b600080fd5b61107f565b60008054141515611048576110436110b2565b611075565b600954600881905550614e2060096000828254019250508190555060008081548092919060010191905055505b61107e82610e75565b5b5050565b60025481565b80600a8190555050565b60003073ffffffffffffffffffffffffffffffffffffffff1631905090565b6000806000806007546001548115156110c757fe5b066001819055506007546002548115156110dd57fe5b066002819055506007546003548115156110f357fe5b0660038190555060025460015414156111205760075460016002540181151561111857fe5b066002819055505b60035460015414156111465760075460026003540181151561113e57fe5b066003819055505b600354600254141561116c5760075460016003540181151561116457fe5b066003819055505b600093506000925060009150661c6bf526340000600660015481548110151561119157fe5b90600052602060002090600402016001015414156111dc576002600b6001600054038154811015156111bf57fe5b9060005260206000209001548115156111d457fe5b049350611270565b660e35fa931a000060066001548154811015156111f557fe5b9060005260206000209060040201600101541415611240576004600b60016000540381548110151561122357fe5b90600052602060002090015481151561123857fe5b04935061126f565b6008600b60016000540381548110151561125657fe5b90600052602060002090015481151561126b57fe5b0493505b5b661c6bf526340000600660025481548110151561128957fe5b90600052602060002090600402016001015414156112d4576004600b6001600054038154811015156112b757fe5b9060005260206000209001548115156112cc57fe5b049250611368565b660e35fa931a000060066002548154811015156112ed57fe5b9060005260206000209060040201600101541415611338576008600b60016000540381548110151561131b57fe5b90600052602060002090015481151561133057fe5b049250611367565b6010600b60016000540381548110151561134e57fe5b90600052602060002090015481151561136357fe5b0492505b5b661c6bf526340000600660035481548110151561138157fe5b90600052602060002090600402016001015414156113cc576008600b6001600054038154811015156113af57fe5b9060005260206000209001548115156113c457fe5b049150611460565b660e35fa931a000060066003548154811015156113e557fe5b9060005260206000209060040201600101541415611430576010600b60016000540381548110151561141357fe5b90600052602060002090015481151561142857fe5b04915061145f565b6020600b60016000540381548110151561144657fe5b90600052602060002090015481151561145b57fe5b0491505b5b8360056000600660015481548110151561147657fe5b906000526020600020906004020160000160009054906101000a900473ffffffffffffffffffffffffffffffffffffffff1673ffffffffffffffffffffffffffffffffffffffff1673ffffffffffffffffffffffffffffffffffffffff168152602001908152602001600020600082825401925050819055508260056000600660025481548110151561150557fe5b906000526020600020906004020160000160009054906101000a900473ffffffffffffffffffffffffffffffffffffffff1673ffffffffffffffffffffffffffffffffffffffff1673ffffffffffffffffffffffffffffffffffffffff168152602001908152602001600020600082825401925050819055508160056000600660035481548110151561159457fe5b906000526020600020906004020160000160009054906101000a900473ffffffffffffffffffffffffffffffffffffffff1673ffffffffffffffffffffffffffffffffffffffff1673ffffffffffffffffffffffffffffffffffffffff16815260200190815260200160002060008282540192505081905550838383600b60016000540381548110151561162457fe5b906000526020600020900154030303905080600b60005481548110151561164757fe5b9060005260206000209001600082825401925050819055506006600061166d9190611782565b600760009055600954600881905550614e20600960008282540192505081905550614e20600a60008282540192505081905550600b80548060010182816116b49190611756565b916000526020600020900160008090919091505550600080815480929190600101919050555050505050565b608060405190810160405280600073ffffffffffffffffffffffffffffffffffffffff16815260200160008152602001600080191681526020016000151581525090565b8154818355818115116117515760040281600402836000526020600020918201910161175091906117a6565b5b505050565b81548183558181151161177d5781836000526020600020918201910161177c9190611810565b5b505050565b50805460008255600402906000526020600020908101906117a391906117a6565b50565b61180d91905b8082111561180957600080820160006101000a81549073ffffffffffffffffffffffffffffffffffffffff0219169055600182016000905560028201600090556003820160006101000a81549060ff0219169055506004016117ac565b5090565b90565b61183291905b8082111561182e576000816000905550600101611816565b5090565b905600a165627a7a72305820df4d91f5b86119bbe23e0e9ad8496042e771b6044e124611d1c13b8e2ee6186d0029",
  "source": "pragma\tsolidity\t^0.4.19;\t\n\ncontract\tLottery\t{\t\n    \n    struct Ticket{\n        address owner;\n        uint256 value;\n        bytes32 hashVal;\n        bool revealed;\n    }\n    \n    // current lottery number\n    uint256    public  lotteryno;\n    \n    \n    // winner numbers that are updated by xoring the numbers given by the buyer at reveal stage\n\tuint256    public  winnernumber1;\n\tuint256    public  winnernumber2;\n\tuint256    public  winnernumber3;\n\t\n\t// lottery mapping that map lotteryno to another mapping that maps ticket hash given at purchase stage to ticket value\n    //mapping ( uint256 => mapping(bytes32 => uint256) ) boughttickets;\n    \n    // lottery mapping that map lotteryno to another mapping that maps ticket hash given at purchase stage to ticket value\n    mapping ( uint256 => mapping(address => Ticket[]) ) boughttickets;\n\n    \t// holds winners' addresses\n\tmapping (address => uint256) winners;\n    \n    // revealed ticket list\n\tTicket[] revealedtickets;\n\t\n\t// total number of revealed tickets for the lottery to be revealed next\n\tuint256 totalrevealed;\n\t\n\t// constant ticket prices\n\tuint256\tconstant\tfullpay = 8 finney;\n\tuint256\tconstant\thalfpay = 4 finney;\n\tuint256\tconstant\tquarterpay = 2 finney;\n\t\n\t// purchase start, purchase end, reveal end times of lottery\n\tuint256\tpublic\tstart;\n\tuint256    public  buyend;\n\tuint256\tpublic\trevealend;\n\t\n\t// current balances of lotteries\n\tuint256[]  lotterybalance;\n\n\t\n\tfunction() public\t{\t\n\t\trevert();\t\n\t}\t\n\t\t\n\t//\tconstructor\t\t\n\tfunction Lottery() public\t{\t\n\t    lotteryno = 0;\n\t    lotterybalance.push(0);\n\t    \n\t\tstart\t=\tblock.number;\n\t\tbuyend =\tstart +  20000;\n\t\trevealend = buyend + 20000;\n\t}\n\t\n\t//buy full ticket\n\tfunction buyfullticket(bytes32 tickethash) public payable {\n\t    if(block.number < buyend){\n\t         if(msg.value == fullpay){\n\t             Ticket memory t;\n\t             t.owner = msg.sender;\n\t             t.value = 8 finney;\n\t             t.hashVal = tickethash;\n\t             boughttickets[lotteryno][msg.sender].push(t);\n\t             lotterybalance[lotteryno] += 8 finney;\n\t         }else{\n\t             revert();\n\t         }\n\t    }else{\n\t        if(lotteryno != 0){\n\t            updatelottery();\n\t        }else{\n\t            start = buyend;\n\t            buyend += 20000;\n\t            lotteryno++;\n\t        }\n\t        buyfullticket(tickethash);\n\t    }\n\t}\n\t\n\t//buy half ticket\n\tfunction buyhalfticket(bytes32 tickethash) public payable {\n\t    if(block.number < buyend){\n\t         if(msg.value == halfpay){\n\t             Ticket memory t;\n\t             t.owner = msg.sender;\n\t             t.value = 4 finney;\n\t             t.hashVal = tickethash;\n\t             boughttickets[lotteryno][msg.sender].push(t);\n\t             lotterybalance[lotteryno] += 4 finney;\n\t         }else{\n\t             revert();\n\t         }\n\t    }else{\n\t        if(lotteryno != 0){\n\t            updatelottery();\n\t        }else{\n\t            start = buyend;\n\t            buyend += 20000;\n\t            lotteryno++;\n\t        }\n\t        buyhalfticket(tickethash);\n\t    }\n\t}\n\t\n\t//buy quarter ticket\n\tfunction buyquarterticket(bytes32 tickethash) public payable {\n\t    if(block.number < buyend){\n\t         if(msg.value == quarterpay){\n\t             Ticket memory t;\n\t             t.owner = msg.sender;\n\t             t.value = 2 finney;\n\t             t.hashVal = tickethash;\n\t             boughttickets[lotteryno][msg.sender].push(t);\n\t             lotterybalance[lotteryno] += 2 finney;\n\t         }else{\n\t             revert();\n\t         }\n\t    }else{\n\t        if(lotteryno != 0){\n\t            updatelottery();\n\t        }else{\n\t            start = buyend;\n\t            buyend += 20000;\n\t            lotterybalance.push(0);\n\t            lotteryno++;\n\t        }\n\t        buyquarterticket(tickethash);\n\t    }\n\t}\n\n\n\n   //reveal ticket\n   function revealticket(uint number1, uint number2, uint number3) public returns(bool) {\n        if( (lotteryno != 0 && block.number < revealend) ){\n\t         bytes32 hash = keccak256(number1,number2,number3,msg.sender);\n\t         uint totalticketsnotyetrevealed = boughttickets[lotteryno-1][msg.sender].length;\n\t         if(totalticketsnotyetrevealed != 0){\n                       \n\t             bool flag = false;\n\t             for(uint i=0;i<totalticketsnotyetrevealed;i++){\n\t                 if(boughttickets[lotteryno-1][msg.sender][i].hashVal == hash && boughttickets[lotteryno-1][msg.sender][i].revealed == false){\n\t                    revealedtickets.push(boughttickets[lotteryno-1][msg.sender][totalticketsnotyetrevealed-1]);\n\t                    totalrevealed++;      \n\t                    // to prevent double reveal of a ticket\n\t                    boughttickets[lotteryno-1][msg.sender][i].revealed = true;\n\t                    flag = true;\n\t\t\t    winnernumber3 ^= number3;\n                 \t    winnernumber2 ^= number2;\n\t             \t    winnernumber1 ^= number1;\n\t                    break;\n\t                 }\n\t             }\n\t             if(flag){\n\t                 return true;\n\t             }else{\n\t                 revert();\n\t             }\n\t         }else{\n\t             revert();\n\t         }\n\t    }else{\n\t        if(lotteryno != 0){\n\t            updatelottery();\n\t            return false;\n\t        }else{\n\t            revert();\n\t        }\n\t    }\n   }\n   \n  \n  //get price if sender has balance greater than zero\n  function getprice() public payable {\n        \n     if(winners[msg.sender] != 0){\n         if\t(msg.sender.send(winners[msg.sender]))\t{\t\n\t\t\t winners[msg.sender] = 0;\t\n\t\t }\t\n     }else{\n         revert();\n     }\n\t  \n  }\n  \n  // get current balance of the contract\n   function getcontractbalance() constant public returns(uint retval) {\n       return address(this).balance;\n   }\n   \n   // updates lottery times after finding winners of the lottery\n   function updatelottery() private {\n       //i assumed there were at least 3 participants in each lottery at the end\n       winnernumber1 = winnernumber1 % totalrevealed;        \n       winnernumber2 = winnernumber2 % totalrevealed;        \n       winnernumber3 = winnernumber3 % totalrevealed;        \n       \n       //make sure that winner indexes are different\n       if(winnernumber1 == winnernumber2){\n           winnernumber2 = (winnernumber2 + 1) % totalrevealed;\n       }\n       if(winnernumber1 == winnernumber3){\n           winnernumber3 =  (winnernumber3 + 2) % totalrevealed;\n       }\n       if(winnernumber2 == winnernumber3){\n           winnernumber3 = (winnernumber3 + 1) % totalrevealed;\n       }\n       \n       uint prize1 = 0;\n       uint prize2 = 0;\n       uint prize3 = 0;\n       \n       if(revealedtickets[winnernumber1].value == 8 finney){\n           prize1 = lotterybalance[lotteryno-1]/2;\n       }else if(revealedtickets[winnernumber1].value == 4 finney){\n           prize1 = lotterybalance[lotteryno-1]/4;\n       }else{\n           prize1 = lotterybalance[lotteryno-1]/8;\n       }\n       \n       if(revealedtickets[winnernumber2].value == 8 finney){\n           prize2 = lotterybalance[lotteryno-1]/4;\n       }else if(revealedtickets[winnernumber2].value == 4 finney){\n           prize2 = lotterybalance[lotteryno-1]/8;\n       }else{\n           prize2 = lotterybalance[lotteryno-1]/16;\n       }\n       \n       if(revealedtickets[winnernumber3].value == 8 finney){\n           prize3 = lotterybalance[lotteryno-1]/8;\n       }else if(revealedtickets[winnernumber3].value == 4 finney){\n           prize3 = lotterybalance[lotteryno-1]/16;\n       }else{\n           prize3 = lotterybalance[lotteryno-1]/32;\n       }\n    \n       \n       // give the price first winner if there are many winners with the same number\n       winners[revealedtickets[winnernumber1].owner] += prize1;\n       winners[revealedtickets[winnernumber2].owner] += prize2;\n       winners[revealedtickets[winnernumber3].owner] += prize3;\n       \n       // update balance of the next lottery\n       uint leftovermoney = lotterybalance[lotteryno-1] - prize3 - prize2 - prize1;\n       lotterybalance[lotteryno] += leftovermoney;\n       \n       // delete revealed tickets to go next lottery reveal safe\n       delete revealedtickets;\n       delete totalrevealed;\n       \n       //update times\n       start = buyend;\n       buyend += 20000;\n       revealend += 20000;\n       \n       // push next lottery balance and update lottery number\n       lotterybalance.push(0);\n       lotteryno++;\n   }\n   \n   \n   \n   /*below methods are helpers when debug*/\n   function gethash(uint i,uint j,uint k) public view returns(bytes32 retval){\n       return keccak256(i,j,k,msg.sender);\n   }\n   \n   function setstart(uint val) public {\n       start = val;\n   }\n   \n   function setbuyend(uint val) public {\n       buyend = val;\n   }\n   \n   function setrevealend(uint val) public{\n       revealend = val;\n   }\n   \n   function setlottery(uint val) public {\n       lotteryno = val;\n   }\n   \n\t\t\t\t\t\n}\t\n",
  "sourcePath": "/home/aykut/Desktop/DecentralizedLottery/contracts/Lottery.sol",
  "compiler": {
    "name": "solc",
    "version": "0.4.21+commit.dfe3193c.Emscripten.clang"
  },
  "schemaVersion": "2.0.0",
  "updatedAt": "2018-04-11T09:35:51.719Z"
}