{
  "contractName": "Lottery",
  "abi": [
    {
      "constant": true,
      "inputs": [],
      "name": "revealend",
      "outputs": [
        {
          "name": "",
          "type": "uint256"
        }
      ],
      "payable": false,
      "stateMutability": "view",
      "type": "function"
    },
    {
      "constant": true,
      "inputs": [],
      "name": "buyend",
      "outputs": [
        {
          "name": "",
          "type": "uint256"
        }
      ],
      "payable": false,
      "stateMutability": "view",
      "type": "function"
    },
    {
      "constant": true,
      "inputs": [],
      "name": "winnernumber1",
      "outputs": [
        {
          "name": "",
          "type": "uint256"
        }
      ],
      "payable": false,
      "stateMutability": "view",
      "type": "function"
    },
    {
      "constant": true,
      "inputs": [],
      "name": "winnernumber3",
      "outputs": [
        {
          "name": "",
          "type": "uint256"
        }
      ],
      "payable": false,
      "stateMutability": "view",
      "type": "function"
    },
    {
      "constant": true,
      "inputs": [],
      "name": "start",
      "outputs": [
        {
          "name": "",
          "type": "uint256"
        }
      ],
      "payable": false,
      "stateMutability": "view",
      "type": "function"
    },
    {
      "constant": true,
      "inputs": [],
      "name": "lotteryno",
      "outputs": [
        {
          "name": "",
          "type": "uint256"
        }
      ],
      "payable": false,
      "stateMutability": "view",
      "type": "function"
    },
    {
      "constant": true,
      "inputs": [],
      "name": "winnernumber2",
      "outputs": [
        {
          "name": "",
          "type": "uint256"
        }
      ],
      "payable": false,
      "stateMutability": "view",
      "type": "function"
    },
    {
      "inputs": [],
      "payable": false,
      "stateMutability": "nonpayable",
      "type": "constructor"
    },
    {
      "payable": false,
      "stateMutability": "nonpayable",
      "type": "fallback"
    },
    {
      "constant": false,
      "inputs": [
        {
          "name": "tickethash",
          "type": "bytes32"
        }
      ],
      "name": "buyfullticket",
      "outputs": [],
      "payable": true,
      "stateMutability": "payable",
      "type": "function"
    },
    {
      "constant": false,
      "inputs": [
        {
          "name": "tickethash",
          "type": "bytes32"
        }
      ],
      "name": "buyhalfticket",
      "outputs": [],
      "payable": true,
      "stateMutability": "payable",
      "type": "function"
    },
    {
      "constant": false,
      "inputs": [
        {
          "name": "tickethash",
          "type": "bytes32"
        }
      ],
      "name": "buyquarterticket",
      "outputs": [],
      "payable": true,
      "stateMutability": "payable",
      "type": "function"
    },
    {
      "constant": false,
      "inputs": [
        {
          "name": "number1",
          "type": "uint256"
        },
        {
          "name": "number2",
          "type": "uint256"
        },
        {
          "name": "number3",
          "type": "uint256"
        }
      ],
      "name": "revealticket",
      "outputs": [],
      "payable": false,
      "stateMutability": "nonpayable",
      "type": "function"
    },
    {
      "constant": false,
      "inputs": [],
      "name": "getprice",
      "outputs": [],
      "payable": true,
      "stateMutability": "payable",
      "type": "function"
    },
    {
      "constant": true,
      "inputs": [],
      "name": "getcontractbalance",
      "outputs": [
        {
          "name": "retval",
          "type": "uint256"
        }
      ],
      "payable": false,
      "stateMutability": "view",
      "type": "function"
    },
    {
      "constant": true,
      "inputs": [
        {
          "name": "i",
          "type": "uint256"
        },
        {
          "name": "j",
          "type": "uint256"
        },
        {
          "name": "k",
          "type": "uint256"
        }
      ],
      "name": "gethash",
      "outputs": [
        {
          "name": "retval",
          "type": "bytes32"
        }
      ],
      "payable": false,
      "stateMutability": "view",
      "type": "function"
    },
    {
      "constant": false,
      "inputs": [
        {
          "name": "val",
          "type": "uint256"
        }
      ],
      "name": "setstart1",
      "outputs": [],
      "payable": false,
      "stateMutability": "nonpayable",
      "type": "function"
    },
    {
      "constant": false,
      "inputs": [
        {
          "name": "val",
          "type": "uint256"
        }
      ],
      "name": "setbuyend",
      "outputs": [],
      "payable": false,
      "stateMutability": "nonpayable",
      "type": "function"
    },
    {
      "constant": false,
      "inputs": [
        {
          "name": "val",
          "type": "uint256"
        }
      ],
      "name": "setrevealend",
      "outputs": [],
      "payable": false,
      "stateMutability": "nonpayable",
      "type": "function"
    }
  ],
  "bytecode": "0x6060604052341561000f57600080fd5b600160008190555042600a8190555062b71b00600a5401600b8190555062b71b00600b5401600c8190555061112d806100496000396000f3006060604052600436106100f1576000357c0100000000000000000000000000000000000000000000000000000000900463ffffffff1680630fcb598414610101578063175a5afe1461010b578063355822fd14610127578063474d6e0f1461017857806348fc57f2146101ad5780634e5077f2146101d6578063594aea58146101ff578063931ea08c146102285780639a5588911461024b5780639c2aa0f814610274578063b277fbf914610297578063be9a6555146102b3578063cfe03619146102dc578063d10d7eb614610305578063d494997414610321578063d9cb44591461034a578063f28bf1461461036d575b34156100fc57600080fd5b600080fd5b610109610396565b005b6101256004808035600019169060200190919050506104aa565b005b341561013257600080fd5b61015a600480803590602001909190803590602001909190803590602001909190505061057d565b60405180826000191660001916815260200191505060405180910390f35b341561018357600080fd5b6101ab60048080359060200190919080359060200190919080359060200190919050506105f1565b005b34156101b857600080fd5b6101c0610a67565b6040518082815260200191505060405180910390f35b34156101e157600080fd5b6101e9610a6d565b6040518082815260200191505060405180910390f35b341561020a57600080fd5b610212610a73565b6040518082815260200191505060405180910390f35b341561023357600080fd5b6102496004808035906020019091905050610a79565b005b341561025657600080fd5b61025e610a83565b6040518082815260200191505060405180910390f35b341561027f57600080fd5b6102956004808035906020019091905050610a89565b005b6102b1600480803560001916906020019091905050610a93565b005b34156102be57600080fd5b6102c6610b66565b6040518082815260200191505060405180910390f35b34156102e757600080fd5b6102ef610b6c565b6040518082815260200191505060405180910390f35b61031f600480803560001916906020019091905050610b72565b005b341561032c57600080fd5b610334610c45565b6040518082815260200191505060405180910390f35b341561035557600080fd5b61036b6004808035906020019091905050610c4b565b005b341561037857600080fd5b610380610c55565b6040518082815260200191505060405180910390f35b6000600760003373ffffffffffffffffffffffffffffffffffffffff1673ffffffffffffffffffffffffffffffffffffffff168152602001908152602001600020541415156104a3573373ffffffffffffffffffffffffffffffffffffffff166108fc600760003373ffffffffffffffffffffffffffffffffffffffff1673ffffffffffffffffffffffffffffffffffffffff168152602001908152602001600020549081150290604051600060405180830381858888f193505050501561049e576000600760003373ffffffffffffffffffffffffffffffffffffffff1673ffffffffffffffffffffffffffffffffffffffff168152602001908152602001600020819055505b6104a8565b600080fd5b565b600b544210156105685766071afd498d000034141561055e5766071afd498d000060056000805481526020019081526020016000206000836000191660001916815260200190815260200160002081905550600960005481548110151561050d57fe5b90600052602060002090016000815480929190600101919050555066071afd498d0000600d60005481548110151561054157fe5b906000526020600020900160008282540192505081905550610563565b600080fd5b61057a565b610570610c74565b610579816104aa565b5b50565b600083838333604051808581526020018481526020018381526020018273ffffffffffffffffffffffffffffffffffffffff1673ffffffffffffffffffffffffffffffffffffffff166c01000000000000000000000000028152601401945050505050604051809103902090509392505050565b6000806000600c5462b71b0042031015610a565785858533604051808581526020018481526020018381526020018273ffffffffffffffffffffffffffffffffffffffff1673ffffffffffffffffffffffffffffffffffffffff166c0100000000000000000000000002815260140194505050505060405180910390209250600160009054906101000a900460ff1615610692576001600054039150610698565b60005491505b6000600560008481526020019081526020016000206000856000191660001916815260200190815260200160002054141515610a4c5766071afd498d0000600560008481526020019081526020016000206000856000191660001916815260200190815260200160002054141561080557338160000160006101000a81548173ffffffffffffffffffffffffffffffffffffffff021916908373ffffffffffffffffffffffffffffffffffffffff16021790555066071afd498d0000816001018190555080600660085481548110151561076e57fe5b90600052602060002090600202016000820160009054906101000a900473ffffffffffffffffffffffffffffffffffffffff168160000160006101000a81548173ffffffffffffffffffffffffffffffffffffffff021916908373ffffffffffffffffffffffffffffffffffffffff1602179055506001820154816001015590505083600460008282541892505081905550610a35565b660e35fa931a0000600560008481526020019081526020016000206000856000191660001916815260200190815260200160002054141561093c57338160000160006101000a81548173ffffffffffffffffffffffffffffffffffffffff021916908373ffffffffffffffffffffffffffffffffffffffff160217905550660e35fa931a000081600101819055508060066008548154811015156108a557fe5b90600052602060002090600202016000820160009054906101000a900473ffffffffffffffffffffffffffffffffffffffff168160000160006101000a81548173ffffffffffffffffffffffffffffffffffffffff021916908373ffffffffffffffffffffffffffffffffffffffff1602179055506001820154816001015590505084600360008282541892505081905550610a34565b338160000160006101000a81548173ffffffffffffffffffffffffffffffffffffffff021916908373ffffffffffffffffffffffffffffffffffffffff160217905550661c6bf52634000081600101819055508060066008548154811015156109a157fe5b90600052602060002090600202016000820160009054906101000a900473ffffffffffffffffffffffffffffffffffffffff168160000160006101000a81548173ffffffffffffffffffffffffffffffffffffffff021916908373ffffffffffffffffffffffffffffffffffffffff16021790555060018201548160010155905050856002600082825418925050819055505b5b600860008154809291906001019190505550610a51565b600080fd5b610a5f565b610a5e610cbd565b5b505050505050565b600c5481565b600b5481565b60025481565b80600a8190555050565b60045481565b80600b8190555050565b600b54421015610b5157660e35fa931a0000341415610b4757660e35fa931a0000600560008054815260200190815260200160002060008360001916600019168152602001908152602001600020819055506009600054815481101515610af657fe5b906000526020600020900160008154809291906001019190505550660e35fa931a0000600d600054815481101515610b2a57fe5b906000526020600020900160008282540192505081905550610b4c565b600080fd5b610b63565b610b59610c74565b610b6281610a93565b5b50565b600a5481565b60005481565b600b54421015610c3057661c6bf526340000341415610c2657661c6bf526340000600560008054815260200190815260200160002060008360001916600019168152602001908152602001600020819055506009600054815481101515610bd557fe5b906000526020600020900160008154809291906001019190505550661c6bf526340000600d600054815481101515610c0957fe5b906000526020600020900160008282540192505081905550610c2b565b600080fd5b610c42565b610c38610c74565b610c4181610b72565b5b50565b60035481565b80600c8190555050565b60003073ffffffffffffffffffffffffffffffffffffffff1631905090565b600b54600a8190555062b71b00600b6000828254019250508190555060018060006101000a81548160ff0219169083151502179055506000808154809291906001019190505550565b6000806000806000600160009054906101000a900460ff1615610ce7576001600054039450610ced565b60005494505b600985815481101515610cfc57fe5b906000526020600020900154600254811515610d1457fe5b06600281905550600985815481101515610d2a57fe5b906000526020600020900154600354811515610d4257fe5b06600381905550600985815481101515610d5857fe5b906000526020600020900154600454811515610d7057fe5b066004819055506003546002541415610d96576003600081548092919060010191905055505b6004546002541415610db45760026004600082825401925050819055505b6004546003541415610dd3576004600081548092919060010191905055505b6002600d86815481101515610de457fe5b906000526020600020900154811515610df957fe5b0493506004600d86815481101515610e0d57fe5b906000526020600020900154811515610e2257fe5b0492506008600d86815481101515610e3657fe5b906000526020600020900154811515610e4b57fe5b04915083600760006006600254815481101515610e6457fe5b906000526020600020906002020160000160009054906101000a900473ffffffffffffffffffffffffffffffffffffffff1673ffffffffffffffffffffffffffffffffffffffff1673ffffffffffffffffffffffffffffffffffffffff1681526020019081526020016000206000828254019250508190555082600760006006600354815481101515610ef357fe5b906000526020600020906002020160000160009054906101000a900473ffffffffffffffffffffffffffffffffffffffff1673ffffffffffffffffffffffffffffffffffffffff1673ffffffffffffffffffffffffffffffffffffffff1681526020019081526020016000206000828254019250508190555081600760006006600454815481101515610f8257fe5b906000526020600020906002020160000160009054906101000a900473ffffffffffffffffffffffffffffffffffffffff1673ffffffffffffffffffffffffffffffffffffffff1673ffffffffffffffffffffffffffffffffffffffff16815260200190815260200160002060008282540192505081905550838383600d8881548110151561100d57fe5b906000526020600020900154030303905080600d8681548110151561102e57fe5b90600052602060002090016000828254019250508190555060066000611054919061108f565b60086000905562b71b00600c600082825401925050819055506000600160006101000a81548160ff0219169083151502179055505050505050565b50805460008255600202906000526020600020908101906110b091906110b3565b50565b6110fe91905b808211156110fa57600080820160006101000a81549073ffffffffffffffffffffffffffffffffffffffff02191690556001820160009055506002016110b9565b5090565b905600a165627a7a723058203f44570b8635f572fca0c189cfdc0a2ff5b14e38000a5fc4858dce852b0950880029",
  "source": "pragma\tsolidity\t^0.4.3;\t\n\ncontract\tLottery\t{\t\n    \n    struct Ticket{\n        address owner;\n        uint value;\n    }\n    \n    // current lottery number\n    uint    public  lotteryno;\n    \n    // whether next lottery is started or another\n    bool nextstarted;\n    \n    // winner numbers that are updated by xoring the numbers given by the buyer at reveal stage\n\tuint    public  winnernumber1;\n\tuint    public  winnernumber2;\n\tuint    public  winnernumber3;\n\t\n\t// lottery mapping that map lotteryno to another mapping that maps ticket hash given at purchase stage to ticket value\n    mapping ( uint => mapping(bytes32 => uint) ) boughttickets;\n    \n    \n    // revealed ticket list\n\tTicket[] revealedtickets;\n\t\n\t// holds winners' addresses\n\tmapping (address => uint) winners;\n\t\n\tuint totalrevealed;\n\t\n\t// total participants in lotteries\n\tuint[]   totalparticipants;\n\n\t// constant ticket prices\n\tuint\tconstant\tfullpay\t= 8 finney;\n\tuint\tconstant\thalfpay\t= 4 finney;\n\tuint\tconstant\tquarterpay = 2 finney;\n\t\n\t// purchase start, purchase end, reveal end times of lottery\n\tuint\tpublic\tstart; \n\tuint    public  buyend;\n\tuint\tpublic\trevealend;\n\t\n\t// current balances of lotteries\n\tuint[]  lotterybalance;\n\n\t\n\tfunction()\t{\t\n\t\tthrow\t;\t\t\n\t}\t\n\t\t\n\t//\tconstructor\t\t\n\tfunction\tLottery()\t{\t\n\t    lotteryno = 1;\n\t    \n\t\tstart\t=\tblock.timestamp;\t\n\t\tbuyend =\tstart + 10  minutes * 20000;\n\t\trevealend = buyend + 10 minutes * 20000;\n\t}\n\t\n\t//buy full ticket\n\tfunction buyfullticket(bytes32 tickethash) public payable {\n\t    if(block.timestamp < buyend){\n\t         if(msg.value == fullpay){\n\t             boughttickets[lotteryno][tickethash] = 8 finney;\n\t             totalparticipants[lotteryno]++;\n\t             lotterybalance[lotteryno] += 8 finney;\n\t         }else{\n\t             throw;\n\t         }\n\t    }else{\n\t        startnewlottery();\n\t        buyfullticket(tickethash);\n\t    }\n\t}\n\t\n\t//buy half ticket\n\tfunction buyhalfticket(bytes32 tickethash) public payable {\n\t    if(block.timestamp < buyend){\n\t         if(msg.value == halfpay){\n\t             boughttickets[lotteryno][tickethash] = 4 finney;\n\t             totalparticipants[lotteryno]++;\n\t             lotterybalance[lotteryno] += 4 finney;\n\t         }else{\n\t             throw;\n\t         }\n\t    }else{\n\t        startnewlottery();\n\t        buyhalfticket(tickethash);\n\t    }\n\t}\n\t\n\t//buy quarter ticket\n\tfunction buyquarterticket(bytes32 tickethash) public payable {\n\t    if(block.timestamp < buyend){\n\t         if(msg.value == quarterpay){\n\t             boughttickets[lotteryno][tickethash] = 2 finney;\n\t             totalparticipants[lotteryno]++;\n\t             lotterybalance[lotteryno] += 2 finney;\n\t         }else{\n\t             throw;\n\t         }\n\t    }else{\n\t        startnewlottery();\n\t        buyquarterticket(tickethash);\n\t    }\n\t}\n\n\n\n   //reveal ticket\n   function revealticket(uint number1, uint number2, uint number3) public {\n        if( (block.timestamp - 10 minutes * 20000) < revealend){\n\t         bytes32 hash = keccak256(number1,number2,number3,msg.sender);\n\t         uint currentlotteryno;\n             if(nextstarted){\n                 currentlotteryno = lotteryno-1;\n             }else{\n                 currentlotteryno = lotteryno;\n             }\n\t         if(boughttickets[currentlotteryno][hash] != 0){\n\t             Ticket t;\n\t             if(boughttickets[currentlotteryno][hash] == 2 finney){\n\t                 t.owner = msg.sender;\n\t                 t.value = 2 finney;\n\t                 revealedtickets[totalrevealed] = t;\n\t                 winnernumber3 ^= number3;\n\t             }else if(boughttickets[currentlotteryno][hash] == 4 finney){\n\t                 t.owner = msg.sender;\n\t                 t.value = 4 finney;\n\t                 revealedtickets[totalrevealed] = t;\n\t                 winnernumber2 ^= number2;\n\t             }else{\n\t                 t.owner = msg.sender;\n\t                 t.value = 8 finney;\n\t                 revealedtickets[totalrevealed] = t;\n\t                 winnernumber1 ^= number1;\n\t             }\n\t             totalrevealed++;\n\t         }else{\n\t             throw;\n\t         }\n\t    }else{\n\t        endlottery();\n\t    }\n   }\n   \n  \n  //get price if sender has balance greater than zero\n  function getprice() public payable {\n        \n     if(winners[msg.sender] != 0){\n         if\t(msg.sender.send(winners[msg.sender]))\t{\t\n\t\t\t winners[msg.sender] = 0;\t\n\t\t }\t\n     }else{\n         throw;\n     }\n\t  \n  }\n  \n  // get current balance of the contract\n   function getcontractbalance() constant public returns(uint retval) {\n       return this.balance;\n   }\n   \n   // update start and end times of two lotteries\n   function startnewlottery() private {\n        \n       start = buyend;\n       buyend += 10 minutes * 20000;\n       \n       nextstarted = true;\n       lotteryno++;\n   }\n   \n   // finds winners and loads money to their accounts\n   function endlottery() private {\n       \n       uint revealedlotteryno;\n       if(nextstarted){\n          revealedlotteryno = lotteryno-1;\n       }else{\n          revealedlotteryno = lotteryno;\n       }\n\n       //i assumed there were at least 3 participants in each lottery at the end\n       winnernumber1 = winnernumber1 % totalparticipants[revealedlotteryno];        \n       winnernumber2 = winnernumber2 % totalparticipants[revealedlotteryno];        \n       winnernumber3 = winnernumber3 % totalparticipants[revealedlotteryno];        \n       \n       //make sure that winner indexes are different\n       if(winnernumber1 == winnernumber2){\n           winnernumber2++;\n       }\n       if(winnernumber1 == winnernumber3){\n           winnernumber3+=2;\n       }\n       if(winnernumber2 == winnernumber3){\n           winnernumber3++;\n       }\n       \n       uint prize1 = lotterybalance[revealedlotteryno]/2;\n       uint prize2 = lotterybalance[revealedlotteryno]/4;\n       uint prize3 = lotterybalance[revealedlotteryno]/8;\n       \n       // give the price first winner if there are many winners with the same number\n       winners[revealedtickets[winnernumber1].owner] += prize1;\n       winners[revealedtickets[winnernumber2].owner] += prize2;\n       winners[revealedtickets[winnernumber3].owner] += prize3;\n       \n       // update balance of the next lottery\n       uint leftovermoney = lotterybalance[revealedlotteryno] - prize3 - prize2 - prize1;\n       lotterybalance[revealedlotteryno] += leftovermoney;\n       \n       // delete revealed tickets to go next lottery reveal safe\n       delete revealedtickets;\n       delete totalrevealed;\n       \n       //update revealend time\n       revealend += 10 minutes * 20000;\n       \n       // reset nexstarted\n       nextstarted = false;\n\n       \n   }\n   \n   /*below methods are helpers when debug*/\n   function gethash(uint i,uint j,uint k) public view returns(bytes32 retval){\n       return keccak256(i,j,k,msg.sender);\n   }\n   \n   function setstart1(uint val) public {\n       start = val;\n   }\n   \n   function setbuyend(uint val) public {\n       buyend = val;\n   }\n   \n   function setrevealend(uint val) public{\n       revealend = val;\n   }\n   \n\t\t\t\t\t\n}\t\n",
  "sourcePath": "/home/aykut/Desktop/mytruffleproject/contracts/lottery.sol",
  "compiler": {
    "name": "solc",
    "version": "0.4.21+commit.dfe3193c.Emscripten.clang"
  },
  "schemaVersion": "2.0.0",
  "updatedAt": "2018-04-04T17:06:14.037Z"
}